{
	"contracts/simple_contract.sol": {
		"ContentPlatform": {
			"abi": [
				{
					"anonymous": false,
					"inputs": [
						{
							"indexed": false,
							"internalType": "uint256",
							"name": "contentId",
							"type": "uint256"
						},
						{
							"indexed": true,
							"internalType": "address",
							"name": "creator",
							"type": "address"
						},
						{
							"indexed": false,
							"internalType": "uint256",
							"name": "price",
							"type": "uint256"
						}
					],
					"name": "ContentPublished",
					"type": "event"
				},
				{
					"anonymous": false,
					"inputs": [
						{
							"indexed": false,
							"internalType": "uint256",
							"name": "contentId",
							"type": "uint256"
						},
						{
							"indexed": true,
							"internalType": "address",
							"name": "buyer",
							"type": "address"
						},
						{
							"indexed": false,
							"internalType": "uint256",
							"name": "price",
							"type": "uint256"
						}
					],
					"name": "ContentPurchased",
					"type": "event"
				},
				{
					"inputs": [
						{
							"internalType": "address",
							"name": "",
							"type": "address"
						}
					],
					"name": "balances",
					"outputs": [
						{
							"internalType": "uint256",
							"name": "",
							"type": "uint256"
						}
					],
					"stateMutability": "view",
					"type": "function"
				},
				{
					"inputs": [],
					"name": "contentCounter",
					"outputs": [
						{
							"internalType": "uint256",
							"name": "",
							"type": "uint256"
						}
					],
					"stateMutability": "view",
					"type": "function"
				},
				{
					"inputs": [
						{
							"internalType": "uint256",
							"name": "",
							"type": "uint256"
						}
					],
					"name": "contents",
					"outputs": [
						{
							"internalType": "uint256",
							"name": "id",
							"type": "uint256"
						},
						{
							"internalType": "address payable",
							"name": "creator",
							"type": "address"
						},
						{
							"internalType": "string",
							"name": "title",
							"type": "string"
						},
						{
							"internalType": "string",
							"name": "contentHash",
							"type": "string"
						},
						{
							"internalType": "uint256",
							"name": "price",
							"type": "uint256"
						},
						{
							"internalType": "bool",
							"name": "forSale",
							"type": "bool"
						}
					],
					"stateMutability": "view",
					"type": "function"
				},
				{
					"inputs": [
						{
							"internalType": "string",
							"name": "_title",
							"type": "string"
						},
						{
							"internalType": "string",
							"name": "_contentHash",
							"type": "string"
						},
						{
							"internalType": "uint256",
							"name": "_price",
							"type": "uint256"
						}
					],
					"name": "publishContent",
					"outputs": [],
					"stateMutability": "nonpayable",
					"type": "function"
				},
				{
					"inputs": [
						{
							"internalType": "uint256",
							"name": "_contentId",
							"type": "uint256"
						}
					],
					"name": "purchaseContent",
					"outputs": [],
					"stateMutability": "payable",
					"type": "function"
				},
				{
					"inputs": [],
					"name": "withdrawBalance",
					"outputs": [],
					"stateMutability": "nonpayable",
					"type": "function"
				}
			],
			"devdoc": {
				"kind": "dev",
				"methods": {},
				"version": 1
			},
			"evm": {
				"assembly": "    /* \"contracts/simple_contract.sol\":60:2105  contract ContentPlatform {... */\n  mstore(0x40, 0x80)\n  callvalue\n  dup1\n  iszero\n  tag_1\n  jumpi\n  0x00\n  dup1\n  revert\ntag_1:\n  pop\n  dataSize(sub_0)\n  dup1\n  dataOffset(sub_0)\n  0x00\n  codecopy\n  0x00\n  return\nstop\n\nsub_0: assembly {\n        /* \"contracts/simple_contract.sol\":60:2105  contract ContentPlatform {... */\n      mstore(0x40, 0x80)\n      jumpi(tag_1, lt(calldatasize, 0x04))\n      shr(0xe0, calldataload(0x00))\n      dup1\n      0x27e235e3\n      eq\n      tag_2\n      jumpi\n      dup1\n      0x28f2ac28\n      eq\n      tag_3\n      jumpi\n      dup1\n      0x5fd8c710\n      eq\n      tag_4\n      jumpi\n      dup1\n      0x782b5e63\n      eq\n      tag_5\n      jumpi\n      dup1\n      0xb5ecf912\n      eq\n      tag_6\n      jumpi\n      dup1\n      0xe6a9aba3\n      eq\n      tag_7\n      jumpi\n    tag_1:\n      0x00\n      dup1\n      revert\n        /* \"contracts/simple_contract.sol\":320:360  mapping(address => uint) public balances */\n    tag_2:\n      callvalue\n      dup1\n      iszero\n      tag_8\n      jumpi\n      0x00\n      dup1\n      revert\n    tag_8:\n      pop\n      tag_9\n      0x04\n      dup1\n      calldatasize\n      sub\n      dup2\n      add\n      swap1\n      tag_10\n      swap2\n      swap1\n      tag_11\n      jump\t// in\n    tag_10:\n      tag_12\n      jump\t// in\n    tag_9:\n      mload(0x40)\n      tag_13\n      swap2\n      swap1\n      tag_14\n      jump\t// in\n    tag_13:\n      mload(0x40)\n      dup1\n      swap2\n      sub\n      swap1\n      return\n        /* \"contracts/simple_contract.sol\":1314:1809  function purchaseContent(uint _contentId) public payable {... */\n    tag_3:\n      tag_15\n      0x04\n      dup1\n      calldatasize\n      sub\n      dup2\n      add\n      swap1\n      tag_16\n      swap2\n      swap1\n      tag_17\n      jump\t// in\n    tag_16:\n      tag_18\n      jump\t// in\n    tag_15:\n      stop\n        /* \"contracts/simple_contract.sol\":1872:2102  function withdrawBalance() public {... */\n    tag_4:\n      callvalue\n      dup1\n      iszero\n      tag_19\n      jumpi\n      0x00\n      dup1\n      revert\n    tag_19:\n      pop\n      tag_20\n      tag_21\n      jump\t// in\n    tag_20:\n      stop\n        /* \"contracts/simple_contract.sol\":602:1269  function publishContent(string memory _title, string memory _contentHash, uint _price) public {... */\n    tag_5:\n      callvalue\n      dup1\n      iszero\n      tag_22\n      jumpi\n      0x00\n      dup1\n      revert\n    tag_22:\n      pop\n      tag_23\n      0x04\n      dup1\n      calldatasize\n      sub\n      dup2\n      add\n      swap1\n      tag_24\n      swap2\n      swap1\n      tag_25\n      jump\t// in\n    tag_24:\n      tag_26\n      jump\t// in\n    tag_23:\n      stop\n        /* \"contracts/simple_contract.sol\":273:313  mapping(uint => Content) public contents */\n    tag_6:\n      callvalue\n      dup1\n      iszero\n      tag_27\n      jumpi\n      0x00\n      dup1\n      revert\n    tag_27:\n      pop\n      tag_28\n      0x04\n      dup1\n      calldatasize\n      sub\n      dup2\n      add\n      swap1\n      tag_29\n      swap2\n      swap1\n      tag_17\n      jump\t// in\n    tag_29:\n      tag_30\n      jump\t// in\n    tag_28:\n      mload(0x40)\n      tag_31\n      swap7\n      swap6\n      swap5\n      swap4\n      swap3\n      swap2\n      swap1\n      tag_32\n      jump\t// in\n    tag_31:\n      mload(0x40)\n      dup1\n      swap2\n      sub\n      swap1\n      return\n        /* \"contracts/simple_contract.sol\":367:393  uint public contentCounter */\n    tag_7:\n      callvalue\n      dup1\n      iszero\n      tag_33\n      jumpi\n      0x00\n      dup1\n      revert\n    tag_33:\n      pop\n      tag_34\n      tag_35\n      jump\t// in\n    tag_34:\n      mload(0x40)\n      tag_36\n      swap2\n      swap1\n      tag_14\n      jump\t// in\n    tag_36:\n      mload(0x40)\n      dup1\n      swap2\n      sub\n      swap1\n      return\n        /* \"contracts/simple_contract.sol\":320:360  mapping(address => uint) public balances */\n    tag_12:\n      mstore(0x20, 0x01)\n      dup1\n      0x00\n      mstore\n      keccak256(0x00, 0x40)\n      0x00\n      swap2\n      pop\n      swap1\n      pop\n      sload\n      dup2\n      jump\t// out\n        /* \"contracts/simple_contract.sol\":1314:1809  function purchaseContent(uint _contentId) public payable {... */\n    tag_18:\n        /* \"contracts/simple_contract.sol\":1382:1405  Content storage content */\n      0x00\n        /* \"contracts/simple_contract.sol\":1408:1416  contents */\n      dup1\n        /* \"contracts/simple_contract.sol\":1408:1428  contents[_contentId] */\n      0x00\n        /* \"contracts/simple_contract.sol\":1417:1427  _contentId */\n      dup4\n        /* \"contracts/simple_contract.sol\":1408:1428  contents[_contentId] */\n      dup2\n      mstore\n      0x20\n      add\n      swap1\n      dup2\n      mstore\n      0x20\n      add\n      0x00\n      keccak256\n        /* \"contracts/simple_contract.sol\":1382:1428  Content storage content = contents[_contentId] */\n      swap1\n      pop\n        /* \"contracts/simple_contract.sol\":1447:1454  content */\n      dup1\n        /* \"contracts/simple_contract.sol\":1447:1462  content.forSale */\n      0x05\n      add\n      0x00\n      swap1\n      sload\n      swap1\n      0x0100\n      exp\n      swap1\n      div\n      0xff\n      and\n        /* \"contracts/simple_contract.sol\":1439:1487  require(content.forSale, \"Content not for sale\") */\n      tag_38\n      jumpi\n      mload(0x40)\n      0x08c379a000000000000000000000000000000000000000000000000000000000\n      dup2\n      mstore\n      0x04\n      add\n      tag_39\n      swap1\n      tag_40\n      jump\t// in\n    tag_39:\n      mload(0x40)\n      dup1\n      swap2\n      sub\n      swap1\n      revert\n    tag_38:\n        /* \"contracts/simple_contract.sol\":1519:1526  content */\n      dup1\n        /* \"contracts/simple_contract.sol\":1519:1532  content.price */\n      0x04\n      add\n      sload\n        /* \"contracts/simple_contract.sol\":1506:1515  msg.value */\n      callvalue\n        /* \"contracts/simple_contract.sol\":1506:1532  msg.value >= content.price */\n      lt\n      iszero\n        /* \"contracts/simple_contract.sol\":1498:1560  require(msg.value >= content.price, \"Insufficient funds sent\") */\n      tag_41\n      jumpi\n      mload(0x40)\n      0x08c379a000000000000000000000000000000000000000000000000000000000\n      dup2\n      mstore\n      0x04\n      add\n      tag_42\n      swap1\n      tag_43\n      jump\t// in\n    tag_42:\n      mload(0x40)\n      dup1\n      swap2\n      sub\n      swap1\n      revert\n    tag_41:\n        /* \"contracts/simple_contract.sol\":1650:1659  msg.value */\n      callvalue\n        /* \"contracts/simple_contract.sol\":1621:1629  balances */\n      0x01\n        /* \"contracts/simple_contract.sol\":1621:1646  balances[content.creator] */\n      0x00\n        /* \"contracts/simple_contract.sol\":1630:1637  content */\n      dup4\n        /* \"contracts/simple_contract.sol\":1630:1645  content.creator */\n      0x01\n      add\n      0x00\n      swap1\n      sload\n      swap1\n      0x0100\n      exp\n      swap1\n      div\n      0xffffffffffffffffffffffffffffffffffffffff\n      and\n        /* \"contracts/simple_contract.sol\":1621:1646  balances[content.creator] */\n      0xffffffffffffffffffffffffffffffffffffffff\n      and\n      0xffffffffffffffffffffffffffffffffffffffff\n      and\n      dup2\n      mstore\n      0x20\n      add\n      swap1\n      dup2\n      mstore\n      0x20\n      add\n      0x00\n      keccak256\n      0x00\n        /* \"contracts/simple_contract.sol\":1621:1659  balances[content.creator] += msg.value */\n      dup3\n      dup3\n      sload\n      tag_44\n      swap2\n      swap1\n      tag_45\n      jump\t// in\n    tag_44:\n      swap3\n      pop\n      pop\n      dup2\n      swap1\n      sstore\n      pop\n        /* \"contracts/simple_contract.sol\":1723:1728  false */\n      0x00\n        /* \"contracts/simple_contract.sol\":1705:1712  content */\n      dup2\n        /* \"contracts/simple_contract.sol\":1705:1720  content.forSale */\n      0x05\n      add\n      0x00\n        /* \"contracts/simple_contract.sol\":1705:1728  content.forSale = false */\n      0x0100\n      exp\n      dup2\n      sload\n      dup2\n      0xff\n      mul\n      not\n      and\n      swap1\n      dup4\n      iszero\n      iszero\n      mul\n      or\n      swap1\n      sstore\n      pop\n        /* \"contracts/simple_contract.sol\":1775:1785  msg.sender */\n      caller\n        /* \"contracts/simple_contract.sol\":1746:1801  ContentPurchased(_contentId, msg.sender, content.price) */\n      0xffffffffffffffffffffffffffffffffffffffff\n      and\n      0xc11917d17603adca99ae03c49747f035153321e0f1b1550d66ce71f0c7f4d0cd\n        /* \"contracts/simple_contract.sol\":1763:1773  _contentId */\n      dup4\n        /* \"contracts/simple_contract.sol\":1787:1794  content */\n      dup4\n        /* \"contracts/simple_contract.sol\":1787:1800  content.price */\n      0x04\n      add\n      sload\n        /* \"contracts/simple_contract.sol\":1746:1801  ContentPurchased(_contentId, msg.sender, content.price) */\n      mload(0x40)\n      tag_46\n      swap3\n      swap2\n      swap1\n      tag_47\n      jump\t// in\n    tag_46:\n      mload(0x40)\n      dup1\n      swap2\n      sub\n      swap1\n      log2\n        /* \"contracts/simple_contract.sol\":1371:1809  {... */\n      pop\n        /* \"contracts/simple_contract.sol\":1314:1809  function purchaseContent(uint _contentId) public payable {... */\n      pop\n      jump\t// out\n        /* \"contracts/simple_contract.sol\":1872:2102  function withdrawBalance() public {... */\n    tag_21:\n        /* \"contracts/simple_contract.sol\":1917:1929  uint balance */\n      0x00\n        /* \"contracts/simple_contract.sol\":1932:1940  balances */\n      0x01\n        /* \"contracts/simple_contract.sol\":1932:1952  balances[msg.sender] */\n      0x00\n        /* \"contracts/simple_contract.sol\":1941:1951  msg.sender */\n      caller\n        /* \"contracts/simple_contract.sol\":1932:1952  balances[msg.sender] */\n      0xffffffffffffffffffffffffffffffffffffffff\n      and\n      0xffffffffffffffffffffffffffffffffffffffff\n      and\n      dup2\n      mstore\n      0x20\n      add\n      swap1\n      dup2\n      mstore\n      0x20\n      add\n      0x00\n      keccak256\n      sload\n        /* \"contracts/simple_contract.sol\":1917:1952  uint balance = balances[msg.sender] */\n      swap1\n      pop\n        /* \"contracts/simple_contract.sol\":1981:1982  0 */\n      0x00\n        /* \"contracts/simple_contract.sol\":1971:1978  balance */\n      dup2\n        /* \"contracts/simple_contract.sol\":1971:1982  balance > 0 */\n      gt\n        /* \"contracts/simple_contract.sol\":1963:2009  require(balance > 0, \"No balance to withdraw\") */\n      tag_49\n      jumpi\n      mload(0x40)\n      0x08c379a000000000000000000000000000000000000000000000000000000000\n      dup2\n      mstore\n      0x04\n      add\n      tag_50\n      swap1\n      tag_51\n      jump\t// in\n    tag_50:\n      mload(0x40)\n      dup1\n      swap2\n      sub\n      swap1\n      revert\n    tag_49:\n        /* \"contracts/simple_contract.sol\":2045:2046  0 */\n      0x00\n        /* \"contracts/simple_contract.sol\":2022:2030  balances */\n      0x01\n        /* \"contracts/simple_contract.sol\":2022:2042  balances[msg.sender] */\n      0x00\n        /* \"contracts/simple_contract.sol\":2031:2041  msg.sender */\n      caller\n        /* \"contracts/simple_contract.sol\":2022:2042  balances[msg.sender] */\n      0xffffffffffffffffffffffffffffffffffffffff\n      and\n      0xffffffffffffffffffffffffffffffffffffffff\n      and\n      dup2\n      mstore\n      0x20\n      add\n      swap1\n      dup2\n      mstore\n      0x20\n      add\n      0x00\n      keccak256\n        /* \"contracts/simple_contract.sol\":2022:2046  balances[msg.sender] = 0 */\n      dup2\n      swap1\n      sstore\n      pop\n        /* \"contracts/simple_contract.sol\":2065:2075  msg.sender */\n      caller\n        /* \"contracts/simple_contract.sol\":2057:2085  payable(msg.sender).transfer */\n      0xffffffffffffffffffffffffffffffffffffffff\n      and\n        /* \"contracts/simple_contract.sol\":2057:2094  payable(msg.sender).transfer(balance) */\n      0x08fc\n        /* \"contracts/simple_contract.sol\":2086:2093  balance */\n      dup3\n        /* \"contracts/simple_contract.sol\":2057:2094  payable(msg.sender).transfer(balance) */\n      swap1\n      dup2\n      iszero\n      mul\n      swap1\n      mload(0x40)\n      0x00\n      mload(0x40)\n      dup1\n      dup4\n      sub\n      dup2\n      dup6\n      dup9\n      dup9\n      call\n      swap4\n      pop\n      pop\n      pop\n      pop\n      iszero\n      dup1\n      iszero\n      tag_53\n      jumpi\n      returndatasize\n      0x00\n      dup1\n      returndatacopy\n      revert(0x00, returndatasize)\n    tag_53:\n      pop\n        /* \"contracts/simple_contract.sol\":1906:2102  {... */\n      pop\n        /* \"contracts/simple_contract.sol\":1872:2102  function withdrawBalance() public {... */\n      jump\t// out\n        /* \"contracts/simple_contract.sol\":602:1269  function publishContent(string memory _title, string memory _contentHash, uint _price) public {... */\n    tag_26:\n        /* \"contracts/simple_contract.sol\":738:739  0 */\n      0x00\n        /* \"contracts/simple_contract.sol\":721:727  _title */\n      dup4\n        /* \"contracts/simple_contract.sol\":715:735  bytes(_title).length */\n      mload\n        /* \"contracts/simple_contract.sol\":715:739  bytes(_title).length > 0 */\n      gt\n        /* \"contracts/simple_contract.sol\":707:761  require(bytes(_title).length > 0, \"Title is required\") */\n      tag_55\n      jumpi\n      mload(0x40)\n      0x08c379a000000000000000000000000000000000000000000000000000000000\n      dup2\n      mstore\n      0x04\n      add\n      tag_56\n      swap1\n      tag_57\n      jump\t// in\n    tag_56:\n      mload(0x40)\n      dup1\n      swap2\n      sub\n      swap1\n      revert\n    tag_55:\n        /* \"contracts/simple_contract.sol\":809:810  0 */\n      0x00\n        /* \"contracts/simple_contract.sol\":786:798  _contentHash */\n      dup3\n        /* \"contracts/simple_contract.sol\":780:806  bytes(_contentHash).length */\n      mload\n        /* \"contracts/simple_contract.sol\":780:810  bytes(_contentHash).length > 0 */\n      gt\n        /* \"contracts/simple_contract.sol\":772:839  require(bytes(_contentHash).length > 0, \"Content hash is required\") */\n      tag_58\n      jumpi\n      mload(0x40)\n      0x08c379a000000000000000000000000000000000000000000000000000000000\n      dup2\n      mstore\n      0x04\n      add\n      tag_59\n      swap1\n      tag_60\n      jump\t// in\n    tag_59:\n      mload(0x40)\n      dup1\n      swap2\n      sub\n      swap1\n      revert\n    tag_58:\n        /* \"contracts/simple_contract.sol\":867:868  0 */\n      0x00\n        /* \"contracts/simple_contract.sol\":858:864  _price */\n      dup2\n        /* \"contracts/simple_contract.sol\":858:868  _price > 0 */\n      gt\n        /* \"contracts/simple_contract.sol\":850:904  require(_price > 0, \"Price must be greater than zero\") */\n      tag_61\n      jumpi\n      mload(0x40)\n      0x08c379a000000000000000000000000000000000000000000000000000000000\n      dup2\n      mstore\n      0x04\n      add\n      tag_62\n      swap1\n      tag_63\n      jump\t// in\n    tag_62:\n      mload(0x40)\n      dup1\n      swap2\n      sub\n      swap1\n      revert\n    tag_61:\n        /* \"contracts/simple_contract.sol\":917:931  contentCounter */\n      0x02\n      0x00\n        /* \"contracts/simple_contract.sol\":917:933  contentCounter++ */\n      dup2\n      sload\n      dup1\n      swap3\n      swap2\n      swap1\n      tag_64\n      swap1\n      tag_65\n      jump\t// in\n    tag_64:\n      swap2\n      swap1\n      pop\n      sstore\n      pop\n        /* \"contracts/simple_contract.sol\":971:1191  Content({... */\n      mload(0x40)\n      dup1\n      0xc0\n      add\n      0x40\n      mstore\n      dup1\n        /* \"contracts/simple_contract.sol\":998:1012  contentCounter */\n      sload(0x02)\n        /* \"contracts/simple_contract.sol\":971:1191  Content({... */\n      dup2\n      mstore\n      0x20\n      add\n        /* \"contracts/simple_contract.sol\":1044:1054  msg.sender */\n      caller\n        /* \"contracts/simple_contract.sol\":971:1191  Content({... */\n      0xffffffffffffffffffffffffffffffffffffffff\n      and\n      dup2\n      mstore\n      0x20\n      add\n        /* \"contracts/simple_contract.sol\":1077:1083  _title */\n      dup5\n        /* \"contracts/simple_contract.sol\":971:1191  Content({... */\n      dup2\n      mstore\n      0x20\n      add\n        /* \"contracts/simple_contract.sol\":1111:1123  _contentHash */\n      dup4\n        /* \"contracts/simple_contract.sol\":971:1191  Content({... */\n      dup2\n      mstore\n      0x20\n      add\n        /* \"contracts/simple_contract.sol\":1145:1151  _price */\n      dup3\n        /* \"contracts/simple_contract.sol\":971:1191  Content({... */\n      dup2\n      mstore\n      0x20\n      add\n        /* \"contracts/simple_contract.sol\":1175:1179  true */\n      0x01\n        /* \"contracts/simple_contract.sol\":971:1191  Content({... */\n      iszero\n      iszero\n      dup2\n      mstore\n      pop\n        /* \"contracts/simple_contract.sol\":944:952  contents */\n      0x00\n        /* \"contracts/simple_contract.sol\":944:968  contents[contentCounter] */\n      dup1\n        /* \"contracts/simple_contract.sol\":953:967  contentCounter */\n      sload(0x02)\n        /* \"contracts/simple_contract.sol\":944:968  contents[contentCounter] */\n      dup2\n      mstore\n      0x20\n      add\n      swap1\n      dup2\n      mstore\n      0x20\n      add\n      0x00\n      keccak256\n        /* \"contracts/simple_contract.sol\":944:1191  contents[contentCounter] = Content({... */\n      0x00\n      dup3\n      add\n      mload\n      dup2\n      0x00\n      add\n      sstore\n      0x20\n      dup3\n      add\n      mload\n      dup2\n      0x01\n      add\n      exp(0x0100, 0x00)\n      dup2\n      sload\n      dup2\n      0xffffffffffffffffffffffffffffffffffffffff\n      mul\n      not\n      and\n      swap1\n      dup4\n      0xffffffffffffffffffffffffffffffffffffffff\n      and\n      mul\n      or\n      swap1\n      sstore\n      pop\n      0x40\n      dup3\n      add\n      mload\n      dup2\n      0x02\n      add\n      swap1\n      dup2\n      tag_66\n      swap2\n      swap1\n      tag_67\n      jump\t// in\n    tag_66:\n      pop\n      0x60\n      dup3\n      add\n      mload\n      dup2\n      0x03\n      add\n      swap1\n      dup2\n      tag_68\n      swap2\n      swap1\n      tag_67\n      jump\t// in\n    tag_68:\n      pop\n      0x80\n      dup3\n      add\n      mload\n      dup2\n      0x04\n      add\n      sstore\n      0xa0\n      dup3\n      add\n      mload\n      dup2\n      0x05\n      add\n      exp(0x0100, 0x00)\n      dup2\n      sload\n      dup2\n      0xff\n      mul\n      not\n      and\n      swap1\n      dup4\n      iszero\n      iszero\n      mul\n      or\n      swap1\n      sstore\n      pop\n      swap1\n      pop\n      pop\n        /* \"contracts/simple_contract.sol\":1242:1252  msg.sender */\n      caller\n        /* \"contracts/simple_contract.sol\":1209:1261  ContentPublished(contentCounter, msg.sender, _price) */\n      0xffffffffffffffffffffffffffffffffffffffff\n      and\n      0xdf860c984583335608af8b72c71fcabf8246988884cfb4650a9aba9a0ebdf47e\n        /* \"contracts/simple_contract.sol\":1226:1240  contentCounter */\n      sload(0x02)\n        /* \"contracts/simple_contract.sol\":1254:1260  _price */\n      dup4\n        /* \"contracts/simple_contract.sol\":1209:1261  ContentPublished(contentCounter, msg.sender, _price) */\n      mload(0x40)\n      tag_69\n      swap3\n      swap2\n      swap1\n      tag_47\n      jump\t// in\n    tag_69:\n      mload(0x40)\n      dup1\n      swap2\n      sub\n      swap1\n      log2\n        /* \"contracts/simple_contract.sol\":602:1269  function publishContent(string memory _title, string memory _contentHash, uint _price) public {... */\n      pop\n      pop\n      pop\n      jump\t// out\n        /* \"contracts/simple_contract.sol\":273:313  mapping(uint => Content) public contents */\n    tag_30:\n      mstore(0x20, 0x00)\n      dup1\n      0x00\n      mstore\n      keccak256(0x00, 0x40)\n      0x00\n      swap2\n      pop\n      swap1\n      pop\n      dup1\n      0x00\n      add\n      sload\n      swap1\n      dup1\n      0x01\n      add\n      0x00\n      swap1\n      sload\n      swap1\n      0x0100\n      exp\n      swap1\n      div\n      0xffffffffffffffffffffffffffffffffffffffff\n      and\n      swap1\n      dup1\n      0x02\n      add\n      dup1\n      sload\n      tag_70\n      swap1\n      tag_71\n      jump\t// in\n    tag_70:\n      dup1\n      0x1f\n      add\n      0x20\n      dup1\n      swap2\n      div\n      mul\n      0x20\n      add\n      mload(0x40)\n      swap1\n      dup2\n      add\n      0x40\n      mstore\n      dup1\n      swap3\n      swap2\n      swap1\n      dup2\n      dup2\n      mstore\n      0x20\n      add\n      dup3\n      dup1\n      sload\n      tag_72\n      swap1\n      tag_71\n      jump\t// in\n    tag_72:\n      dup1\n      iszero\n      tag_73\n      jumpi\n      dup1\n      0x1f\n      lt\n      tag_74\n      jumpi\n      0x0100\n      dup1\n      dup4\n      sload\n      div\n      mul\n      dup4\n      mstore\n      swap2\n      0x20\n      add\n      swap2\n      jump(tag_73)\n    tag_74:\n      dup3\n      add\n      swap2\n      swap1\n      0x00\n      mstore\n      keccak256(0x00, 0x20)\n      swap1\n    tag_75:\n      dup2\n      sload\n      dup2\n      mstore\n      swap1\n      0x01\n      add\n      swap1\n      0x20\n      add\n      dup1\n      dup4\n      gt\n      tag_75\n      jumpi\n      dup3\n      swap1\n      sub\n      0x1f\n      and\n      dup3\n      add\n      swap2\n    tag_73:\n      pop\n      pop\n      pop\n      pop\n      pop\n      swap1\n      dup1\n      0x03\n      add\n      dup1\n      sload\n      tag_76\n      swap1\n      tag_71\n      jump\t// in\n    tag_76:\n      dup1\n      0x1f\n      add\n      0x20\n      dup1\n      swap2\n      div\n      mul\n      0x20\n      add\n      mload(0x40)\n      swap1\n      dup2\n      add\n      0x40\n      mstore\n      dup1\n      swap3\n      swap2\n      swap1\n      dup2\n      dup2\n      mstore\n      0x20\n      add\n      dup3\n      dup1\n      sload\n      tag_77\n      swap1\n      tag_71\n      jump\t// in\n    tag_77:\n      dup1\n      iszero\n      tag_78\n      jumpi\n      dup1\n      0x1f\n      lt\n      tag_79\n      jumpi\n      0x0100\n      dup1\n      dup4\n      sload\n      div\n      mul\n      dup4\n      mstore\n      swap2\n      0x20\n      add\n      swap2\n      jump(tag_78)\n    tag_79:\n      dup3\n      add\n      swap2\n      swap1\n      0x00\n      mstore\n      keccak256(0x00, 0x20)\n      swap1\n    tag_80:\n      dup2\n      sload\n      dup2\n      mstore\n      swap1\n      0x01\n      add\n      swap1\n      0x20\n      add\n      dup1\n      dup4\n      gt\n      tag_80\n      jumpi\n      dup3\n      swap1\n      sub\n      0x1f\n      and\n      dup3\n      add\n      swap2\n    tag_78:\n      pop\n      pop\n      pop\n      pop\n      pop\n      swap1\n      dup1\n      0x04\n      add\n      sload\n      swap1\n      dup1\n      0x05\n      add\n      0x00\n      swap1\n      sload\n      swap1\n      0x0100\n      exp\n      swap1\n      div\n      0xff\n      and\n      swap1\n      pop\n      dup7\n      jump\t// out\n        /* \"contracts/simple_contract.sol\":367:393  uint public contentCounter */\n    tag_35:\n      sload(0x02)\n      dup2\n      jump\t// out\n        /* \"#utility.yul\":7:82   */\n    tag_81:\n        /* \"#utility.yul\":40:46   */\n      0x00\n        /* \"#utility.yul\":73:75   */\n      0x40\n        /* \"#utility.yul\":67:76   */\n      mload\n        /* \"#utility.yul\":57:76   */\n      swap1\n      pop\n        /* \"#utility.yul\":7:82   */\n      swap1\n      jump\t// out\n        /* \"#utility.yul\":88:205   */\n    tag_82:\n        /* \"#utility.yul\":197:198   */\n      0x00\n        /* \"#utility.yul\":194:195   */\n      dup1\n        /* \"#utility.yul\":187:199   */\n      revert\n        /* \"#utility.yul\":211:328   */\n    tag_83:\n        /* \"#utility.yul\":320:321   */\n      0x00\n        /* \"#utility.yul\":317:318   */\n      dup1\n        /* \"#utility.yul\":310:322   */\n      revert\n        /* \"#utility.yul\":334:460   */\n    tag_84:\n        /* \"#utility.yul\":371:378   */\n      0x00\n        /* \"#utility.yul\":411:453   */\n      0xffffffffffffffffffffffffffffffffffffffff\n        /* \"#utility.yul\":404:409   */\n      dup3\n        /* \"#utility.yul\":400:454   */\n      and\n        /* \"#utility.yul\":389:454   */\n      swap1\n      pop\n        /* \"#utility.yul\":334:460   */\n      swap2\n      swap1\n      pop\n      jump\t// out\n        /* \"#utility.yul\":466:562   */\n    tag_85:\n        /* \"#utility.yul\":503:510   */\n      0x00\n        /* \"#utility.yul\":532:556   */\n      tag_145\n        /* \"#utility.yul\":550:555   */\n      dup3\n        /* \"#utility.yul\":532:556   */\n      tag_84\n      jump\t// in\n    tag_145:\n        /* \"#utility.yul\":521:556   */\n      swap1\n      pop\n        /* \"#utility.yul\":466:562   */\n      swap2\n      swap1\n      pop\n      jump\t// out\n        /* \"#utility.yul\":568:690   */\n    tag_86:\n        /* \"#utility.yul\":641:665   */\n      tag_147\n        /* \"#utility.yul\":659:664   */\n      dup2\n        /* \"#utility.yul\":641:665   */\n      tag_85\n      jump\t// in\n    tag_147:\n        /* \"#utility.yul\":634:639   */\n      dup2\n        /* \"#utility.yul\":631:666   */\n      eq\n        /* \"#utility.yul\":621:684   */\n      tag_148\n      jumpi\n        /* \"#utility.yul\":680:681   */\n      0x00\n        /* \"#utility.yul\":677:678   */\n      dup1\n        /* \"#utility.yul\":670:682   */\n      revert\n        /* \"#utility.yul\":621:684   */\n    tag_148:\n        /* \"#utility.yul\":568:690   */\n      pop\n      jump\t// out\n        /* \"#utility.yul\":696:835   */\n    tag_87:\n        /* \"#utility.yul\":742:747   */\n      0x00\n        /* \"#utility.yul\":780:786   */\n      dup2\n        /* \"#utility.yul\":767:787   */\n      calldataload\n        /* \"#utility.yul\":758:787   */\n      swap1\n      pop\n        /* \"#utility.yul\":796:829   */\n      tag_150\n        /* \"#utility.yul\":823:828   */\n      dup2\n        /* \"#utility.yul\":796:829   */\n      tag_86\n      jump\t// in\n    tag_150:\n        /* \"#utility.yul\":696:835   */\n      swap3\n      swap2\n      pop\n      pop\n      jump\t// out\n        /* \"#utility.yul\":841:1170   */\n    tag_11:\n        /* \"#utility.yul\":900:906   */\n      0x00\n        /* \"#utility.yul\":949:951   */\n      0x20\n        /* \"#utility.yul\":937:946   */\n      dup3\n        /* \"#utility.yul\":928:935   */\n      dup5\n        /* \"#utility.yul\":924:947   */\n      sub\n        /* \"#utility.yul\":920:952   */\n      slt\n        /* \"#utility.yul\":917:1036   */\n      iszero\n      tag_152\n      jumpi\n        /* \"#utility.yul\":955:1034   */\n      tag_153\n      tag_82\n      jump\t// in\n    tag_153:\n        /* \"#utility.yul\":917:1036   */\n    tag_152:\n        /* \"#utility.yul\":1075:1076   */\n      0x00\n        /* \"#utility.yul\":1100:1153   */\n      tag_154\n        /* \"#utility.yul\":1145:1152   */\n      dup5\n        /* \"#utility.yul\":1136:1142   */\n      dup3\n        /* \"#utility.yul\":1125:1134   */\n      dup6\n        /* \"#utility.yul\":1121:1143   */\n      add\n        /* \"#utility.yul\":1100:1153   */\n      tag_87\n      jump\t// in\n    tag_154:\n        /* \"#utility.yul\":1090:1153   */\n      swap2\n      pop\n        /* \"#utility.yul\":1046:1163   */\n      pop\n        /* \"#utility.yul\":841:1170   */\n      swap3\n      swap2\n      pop\n      pop\n      jump\t// out\n        /* \"#utility.yul\":1176:1253   */\n    tag_88:\n        /* \"#utility.yul\":1213:1220   */\n      0x00\n        /* \"#utility.yul\":1242:1247   */\n      dup2\n        /* \"#utility.yul\":1231:1247   */\n      swap1\n      pop\n        /* \"#utility.yul\":1176:1253   */\n      swap2\n      swap1\n      pop\n      jump\t// out\n        /* \"#utility.yul\":1259:1377   */\n    tag_89:\n        /* \"#utility.yul\":1346:1370   */\n      tag_157\n        /* \"#utility.yul\":1364:1369   */\n      dup2\n        /* \"#utility.yul\":1346:1370   */\n      tag_88\n      jump\t// in\n    tag_157:\n        /* \"#utility.yul\":1341:1344   */\n      dup3\n        /* \"#utility.yul\":1334:1371   */\n      mstore\n        /* \"#utility.yul\":1259:1377   */\n      pop\n      pop\n      jump\t// out\n        /* \"#utility.yul\":1383:1605   */\n    tag_14:\n        /* \"#utility.yul\":1476:1480   */\n      0x00\n        /* \"#utility.yul\":1514:1516   */\n      0x20\n        /* \"#utility.yul\":1503:1512   */\n      dup3\n        /* \"#utility.yul\":1499:1517   */\n      add\n        /* \"#utility.yul\":1491:1517   */\n      swap1\n      pop\n        /* \"#utility.yul\":1527:1598   */\n      tag_159\n        /* \"#utility.yul\":1595:1596   */\n      0x00\n        /* \"#utility.yul\":1584:1593   */\n      dup4\n        /* \"#utility.yul\":1580:1597   */\n      add\n        /* \"#utility.yul\":1571:1577   */\n      dup5\n        /* \"#utility.yul\":1527:1598   */\n      tag_89\n      jump\t// in\n    tag_159:\n        /* \"#utility.yul\":1383:1605   */\n      swap3\n      swap2\n      pop\n      pop\n      jump\t// out\n        /* \"#utility.yul\":1611:1733   */\n    tag_90:\n        /* \"#utility.yul\":1684:1708   */\n      tag_161\n        /* \"#utility.yul\":1702:1707   */\n      dup2\n        /* \"#utility.yul\":1684:1708   */\n      tag_88\n      jump\t// in\n    tag_161:\n        /* \"#utility.yul\":1677:1682   */\n      dup2\n        /* \"#utility.yul\":1674:1709   */\n      eq\n        /* \"#utility.yul\":1664:1727   */\n      tag_162\n      jumpi\n        /* \"#utility.yul\":1723:1724   */\n      0x00\n        /* \"#utility.yul\":1720:1721   */\n      dup1\n        /* \"#utility.yul\":1713:1725   */\n      revert\n        /* \"#utility.yul\":1664:1727   */\n    tag_162:\n        /* \"#utility.yul\":1611:1733   */\n      pop\n      jump\t// out\n        /* \"#utility.yul\":1739:1878   */\n    tag_91:\n        /* \"#utility.yul\":1785:1790   */\n      0x00\n        /* \"#utility.yul\":1823:1829   */\n      dup2\n        /* \"#utility.yul\":1810:1830   */\n      calldataload\n        /* \"#utility.yul\":1801:1830   */\n      swap1\n      pop\n        /* \"#utility.yul\":1839:1872   */\n      tag_164\n        /* \"#utility.yul\":1866:1871   */\n      dup2\n        /* \"#utility.yul\":1839:1872   */\n      tag_90\n      jump\t// in\n    tag_164:\n        /* \"#utility.yul\":1739:1878   */\n      swap3\n      swap2\n      pop\n      pop\n      jump\t// out\n        /* \"#utility.yul\":1884:2213   */\n    tag_17:\n        /* \"#utility.yul\":1943:1949   */\n      0x00\n        /* \"#utility.yul\":1992:1994   */\n      0x20\n        /* \"#utility.yul\":1980:1989   */\n      dup3\n        /* \"#utility.yul\":1971:1978   */\n      dup5\n        /* \"#utility.yul\":1967:1990   */\n      sub\n        /* \"#utility.yul\":1963:1995   */\n      slt\n        /* \"#utility.yul\":1960:2079   */\n      iszero\n      tag_166\n      jumpi\n        /* \"#utility.yul\":1998:2077   */\n      tag_167\n      tag_82\n      jump\t// in\n    tag_167:\n        /* \"#utility.yul\":1960:2079   */\n    tag_166:\n        /* \"#utility.yul\":2118:2119   */\n      0x00\n        /* \"#utility.yul\":2143:2196   */\n      tag_168\n        /* \"#utility.yul\":2188:2195   */\n      dup5\n        /* \"#utility.yul\":2179:2185   */\n      dup3\n        /* \"#utility.yul\":2168:2177   */\n      dup6\n        /* \"#utility.yul\":2164:2186   */\n      add\n        /* \"#utility.yul\":2143:2196   */\n      tag_91\n      jump\t// in\n    tag_168:\n        /* \"#utility.yul\":2133:2196   */\n      swap2\n      pop\n        /* \"#utility.yul\":2089:2206   */\n      pop\n        /* \"#utility.yul\":1884:2213   */\n      swap3\n      swap2\n      pop\n      pop\n      jump\t// out\n        /* \"#utility.yul\":2219:2336   */\n    tag_92:\n        /* \"#utility.yul\":2328:2329   */\n      0x00\n        /* \"#utility.yul\":2325:2326   */\n      dup1\n        /* \"#utility.yul\":2318:2330   */\n      revert\n        /* \"#utility.yul\":2342:2459   */\n    tag_93:\n        /* \"#utility.yul\":2451:2452   */\n      0x00\n        /* \"#utility.yul\":2448:2449   */\n      dup1\n        /* \"#utility.yul\":2441:2453   */\n      revert\n        /* \"#utility.yul\":2465:2567   */\n    tag_94:\n        /* \"#utility.yul\":2506:2512   */\n      0x00\n        /* \"#utility.yul\":2557:2559   */\n      0x1f\n        /* \"#utility.yul\":2553:2560   */\n      not\n        /* \"#utility.yul\":2548:2550   */\n      0x1f\n        /* \"#utility.yul\":2541:2546   */\n      dup4\n        /* \"#utility.yul\":2537:2551   */\n      add\n        /* \"#utility.yul\":2533:2561   */\n      and\n        /* \"#utility.yul\":2523:2561   */\n      swap1\n      pop\n        /* \"#utility.yul\":2465:2567   */\n      swap2\n      swap1\n      pop\n      jump\t// out\n        /* \"#utility.yul\":2573:2753   */\n    tag_95:\n        /* \"#utility.yul\":2621:2698   */\n      0x4e487b7100000000000000000000000000000000000000000000000000000000\n        /* \"#utility.yul\":2618:2619   */\n      0x00\n        /* \"#utility.yul\":2611:2699   */\n      mstore\n        /* \"#utility.yul\":2718:2722   */\n      0x41\n        /* \"#utility.yul\":2715:2716   */\n      0x04\n        /* \"#utility.yul\":2708:2723   */\n      mstore\n        /* \"#utility.yul\":2742:2746   */\n      0x24\n        /* \"#utility.yul\":2739:2740   */\n      0x00\n        /* \"#utility.yul\":2732:2747   */\n      revert\n        /* \"#utility.yul\":2759:3040   */\n    tag_96:\n        /* \"#utility.yul\":2842:2869   */\n      tag_174\n        /* \"#utility.yul\":2864:2868   */\n      dup3\n        /* \"#utility.yul\":2842:2869   */\n      tag_94\n      jump\t// in\n    tag_174:\n        /* \"#utility.yul\":2834:2840   */\n      dup2\n        /* \"#utility.yul\":2830:2870   */\n      add\n        /* \"#utility.yul\":2972:2978   */\n      dup2\n        /* \"#utility.yul\":2960:2970   */\n      dup2\n        /* \"#utility.yul\":2957:2979   */\n      lt\n        /* \"#utility.yul\":2936:2954   */\n      0xffffffffffffffff\n        /* \"#utility.yul\":2924:2934   */\n      dup3\n        /* \"#utility.yul\":2921:2955   */\n      gt\n        /* \"#utility.yul\":2918:2980   */\n      or\n        /* \"#utility.yul\":2915:3003   */\n      iszero\n      tag_175\n      jumpi\n        /* \"#utility.yul\":2983:3001   */\n      tag_176\n      tag_95\n      jump\t// in\n    tag_176:\n        /* \"#utility.yul\":2915:3003   */\n    tag_175:\n        /* \"#utility.yul\":3023:3033   */\n      dup1\n        /* \"#utility.yul\":3019:3021   */\n      0x40\n        /* \"#utility.yul\":3012:3034   */\n      mstore\n        /* \"#utility.yul\":2802:3040   */\n      pop\n        /* \"#utility.yul\":2759:3040   */\n      pop\n      pop\n      jump\t// out\n        /* \"#utility.yul\":3046:3175   */\n    tag_97:\n        /* \"#utility.yul\":3080:3086   */\n      0x00\n        /* \"#utility.yul\":3107:3127   */\n      tag_178\n      tag_81\n      jump\t// in\n    tag_178:\n        /* \"#utility.yul\":3097:3127   */\n      swap1\n      pop\n        /* \"#utility.yul\":3136:3169   */\n      tag_179\n        /* \"#utility.yul\":3164:3168   */\n      dup3\n        /* \"#utility.yul\":3156:3162   */\n      dup3\n        /* \"#utility.yul\":3136:3169   */\n      tag_96\n      jump\t// in\n    tag_179:\n        /* \"#utility.yul\":3046:3175   */\n      swap2\n      swap1\n      pop\n      jump\t// out\n        /* \"#utility.yul\":3181:3489   */\n    tag_98:\n        /* \"#utility.yul\":3243:3247   */\n      0x00\n        /* \"#utility.yul\":3333:3351   */\n      0xffffffffffffffff\n        /* \"#utility.yul\":3325:3331   */\n      dup3\n        /* \"#utility.yul\":3322:3352   */\n      gt\n        /* \"#utility.yul\":3319:3375   */\n      iszero\n      tag_181\n      jumpi\n        /* \"#utility.yul\":3355:3373   */\n      tag_182\n      tag_95\n      jump\t// in\n    tag_182:\n        /* \"#utility.yul\":3319:3375   */\n    tag_181:\n        /* \"#utility.yul\":3393:3422   */\n      tag_183\n        /* \"#utility.yul\":3415:3421   */\n      dup3\n        /* \"#utility.yul\":3393:3422   */\n      tag_94\n      jump\t// in\n    tag_183:\n        /* \"#utility.yul\":3385:3422   */\n      swap1\n      pop\n        /* \"#utility.yul\":3477:3481   */\n      0x20\n        /* \"#utility.yul\":3471:3475   */\n      dup2\n        /* \"#utility.yul\":3467:3482   */\n      add\n        /* \"#utility.yul\":3459:3482   */\n      swap1\n      pop\n        /* \"#utility.yul\":3181:3489   */\n      swap2\n      swap1\n      pop\n      jump\t// out\n        /* \"#utility.yul\":3495:3643   */\n    tag_99:\n        /* \"#utility.yul\":3593:3599   */\n      dup3\n        /* \"#utility.yul\":3588:3591   */\n      dup2\n        /* \"#utility.yul\":3583:3586   */\n      dup4\n        /* \"#utility.yul\":3570:3600   */\n      calldatacopy\n        /* \"#utility.yul\":3634:3635   */\n      0x00\n        /* \"#utility.yul\":3625:3631   */\n      dup4\n        /* \"#utility.yul\":3620:3623   */\n      dup4\n        /* \"#utility.yul\":3616:3632   */\n      add\n        /* \"#utility.yul\":3609:3636   */\n      mstore\n        /* \"#utility.yul\":3495:3643   */\n      pop\n      pop\n      pop\n      jump\t// out\n        /* \"#utility.yul\":3649:4074   */\n    tag_100:\n        /* \"#utility.yul\":3727:3732   */\n      0x00\n        /* \"#utility.yul\":3752:3818   */\n      tag_186\n        /* \"#utility.yul\":3768:3817   */\n      tag_187\n        /* \"#utility.yul\":3810:3816   */\n      dup5\n        /* \"#utility.yul\":3768:3817   */\n      tag_98\n      jump\t// in\n    tag_187:\n        /* \"#utility.yul\":3752:3818   */\n      tag_97\n      jump\t// in\n    tag_186:\n        /* \"#utility.yul\":3743:3818   */\n      swap1\n      pop\n        /* \"#utility.yul\":3841:3847   */\n      dup3\n        /* \"#utility.yul\":3834:3839   */\n      dup2\n        /* \"#utility.yul\":3827:3848   */\n      mstore\n        /* \"#utility.yul\":3879:3883   */\n      0x20\n        /* \"#utility.yul\":3872:3877   */\n      dup2\n        /* \"#utility.yul\":3868:3884   */\n      add\n        /* \"#utility.yul\":3917:3920   */\n      dup5\n        /* \"#utility.yul\":3908:3914   */\n      dup5\n        /* \"#utility.yul\":3903:3906   */\n      dup5\n        /* \"#utility.yul\":3899:3915   */\n      add\n        /* \"#utility.yul\":3896:3921   */\n      gt\n        /* \"#utility.yul\":3893:4005   */\n      iszero\n      tag_188\n      jumpi\n        /* \"#utility.yul\":3924:4003   */\n      tag_189\n      tag_93\n      jump\t// in\n    tag_189:\n        /* \"#utility.yul\":3893:4005   */\n    tag_188:\n        /* \"#utility.yul\":4014:4068   */\n      tag_190\n        /* \"#utility.yul\":4061:4067   */\n      dup5\n        /* \"#utility.yul\":4056:4059   */\n      dup3\n        /* \"#utility.yul\":4051:4054   */\n      dup6\n        /* \"#utility.yul\":4014:4068   */\n      tag_99\n      jump\t// in\n    tag_190:\n        /* \"#utility.yul\":3733:4074   */\n      pop\n        /* \"#utility.yul\":3649:4074   */\n      swap4\n      swap3\n      pop\n      pop\n      pop\n      jump\t// out\n        /* \"#utility.yul\":4094:4434   */\n    tag_101:\n        /* \"#utility.yul\":4150:4155   */\n      0x00\n        /* \"#utility.yul\":4199:4202   */\n      dup3\n        /* \"#utility.yul\":4192:4196   */\n      0x1f\n        /* \"#utility.yul\":4184:4190   */\n      dup4\n        /* \"#utility.yul\":4180:4197   */\n      add\n        /* \"#utility.yul\":4176:4203   */\n      slt\n        /* \"#utility.yul\":4166:4288   */\n      tag_192\n      jumpi\n        /* \"#utility.yul\":4207:4286   */\n      tag_193\n      tag_92\n      jump\t// in\n    tag_193:\n        /* \"#utility.yul\":4166:4288   */\n    tag_192:\n        /* \"#utility.yul\":4324:4330   */\n      dup2\n        /* \"#utility.yul\":4311:4331   */\n      calldataload\n        /* \"#utility.yul\":4349:4428   */\n      tag_194\n        /* \"#utility.yul\":4424:4427   */\n      dup5\n        /* \"#utility.yul\":4416:4422   */\n      dup3\n        /* \"#utility.yul\":4409:4413   */\n      0x20\n        /* \"#utility.yul\":4401:4407   */\n      dup7\n        /* \"#utility.yul\":4397:4414   */\n      add\n        /* \"#utility.yul\":4349:4428   */\n      tag_100\n      jump\t// in\n    tag_194:\n        /* \"#utility.yul\":4340:4428   */\n      swap2\n      pop\n        /* \"#utility.yul\":4156:4434   */\n      pop\n        /* \"#utility.yul\":4094:4434   */\n      swap3\n      swap2\n      pop\n      pop\n      jump\t// out\n        /* \"#utility.yul\":4440:5419   */\n    tag_25:\n        /* \"#utility.yul\":4537:4543   */\n      0x00\n        /* \"#utility.yul\":4545:4551   */\n      dup1\n        /* \"#utility.yul\":4553:4559   */\n      0x00\n        /* \"#utility.yul\":4602:4604   */\n      0x60\n        /* \"#utility.yul\":4590:4599   */\n      dup5\n        /* \"#utility.yul\":4581:4588   */\n      dup7\n        /* \"#utility.yul\":4577:4600   */\n      sub\n        /* \"#utility.yul\":4573:4605   */\n      slt\n        /* \"#utility.yul\":4570:4689   */\n      iszero\n      tag_196\n      jumpi\n        /* \"#utility.yul\":4608:4687   */\n      tag_197\n      tag_82\n      jump\t// in\n    tag_197:\n        /* \"#utility.yul\":4570:4689   */\n    tag_196:\n        /* \"#utility.yul\":4756:4757   */\n      0x00\n        /* \"#utility.yul\":4745:4754   */\n      dup5\n        /* \"#utility.yul\":4741:4758   */\n      add\n        /* \"#utility.yul\":4728:4759   */\n      calldataload\n        /* \"#utility.yul\":4786:4804   */\n      0xffffffffffffffff\n        /* \"#utility.yul\":4778:4784   */\n      dup2\n        /* \"#utility.yul\":4775:4805   */\n      gt\n        /* \"#utility.yul\":4772:4889   */\n      iszero\n      tag_198\n      jumpi\n        /* \"#utility.yul\":4808:4887   */\n      tag_199\n      tag_83\n      jump\t// in\n    tag_199:\n        /* \"#utility.yul\":4772:4889   */\n    tag_198:\n        /* \"#utility.yul\":4913:4976   */\n      tag_200\n        /* \"#utility.yul\":4968:4975   */\n      dup7\n        /* \"#utility.yul\":4959:4965   */\n      dup3\n        /* \"#utility.yul\":4948:4957   */\n      dup8\n        /* \"#utility.yul\":4944:4966   */\n      add\n        /* \"#utility.yul\":4913:4976   */\n      tag_101\n      jump\t// in\n    tag_200:\n        /* \"#utility.yul\":4903:4976   */\n      swap4\n      pop\n        /* \"#utility.yul\":4699:4986   */\n      pop\n        /* \"#utility.yul\":5053:5055   */\n      0x20\n        /* \"#utility.yul\":5042:5051   */\n      dup5\n        /* \"#utility.yul\":5038:5056   */\n      add\n        /* \"#utility.yul\":5025:5057   */\n      calldataload\n        /* \"#utility.yul\":5084:5102   */\n      0xffffffffffffffff\n        /* \"#utility.yul\":5076:5082   */\n      dup2\n        /* \"#utility.yul\":5073:5103   */\n      gt\n        /* \"#utility.yul\":5070:5187   */\n      iszero\n      tag_201\n      jumpi\n        /* \"#utility.yul\":5106:5185   */\n      tag_202\n      tag_83\n      jump\t// in\n    tag_202:\n        /* \"#utility.yul\":5070:5187   */\n    tag_201:\n        /* \"#utility.yul\":5211:5274   */\n      tag_203\n        /* \"#utility.yul\":5266:5273   */\n      dup7\n        /* \"#utility.yul\":5257:5263   */\n      dup3\n        /* \"#utility.yul\":5246:5255   */\n      dup8\n        /* \"#utility.yul\":5242:5264   */\n      add\n        /* \"#utility.yul\":5211:5274   */\n      tag_101\n      jump\t// in\n    tag_203:\n        /* \"#utility.yul\":5201:5274   */\n      swap3\n      pop\n        /* \"#utility.yul\":4996:5284   */\n      pop\n        /* \"#utility.yul\":5323:5325   */\n      0x40\n        /* \"#utility.yul\":5349:5402   */\n      tag_204\n        /* \"#utility.yul\":5394:5401   */\n      dup7\n        /* \"#utility.yul\":5385:5391   */\n      dup3\n        /* \"#utility.yul\":5374:5383   */\n      dup8\n        /* \"#utility.yul\":5370:5392   */\n      add\n        /* \"#utility.yul\":5349:5402   */\n      tag_91\n      jump\t// in\n    tag_204:\n        /* \"#utility.yul\":5339:5402   */\n      swap2\n      pop\n        /* \"#utility.yul\":5294:5412   */\n      pop\n        /* \"#utility.yul\":4440:5419   */\n      swap3\n      pop\n      swap3\n      pop\n      swap3\n      jump\t// out\n        /* \"#utility.yul\":5425:5529   */\n    tag_102:\n        /* \"#utility.yul\":5470:5477   */\n      0x00\n        /* \"#utility.yul\":5499:5523   */\n      tag_206\n        /* \"#utility.yul\":5517:5522   */\n      dup3\n        /* \"#utility.yul\":5499:5523   */\n      tag_84\n      jump\t// in\n    tag_206:\n        /* \"#utility.yul\":5488:5523   */\n      swap1\n      pop\n        /* \"#utility.yul\":5425:5529   */\n      swap2\n      swap1\n      pop\n      jump\t// out\n        /* \"#utility.yul\":5535:5677   */\n    tag_103:\n        /* \"#utility.yul\":5638:5670   */\n      tag_208\n        /* \"#utility.yul\":5664:5669   */\n      dup2\n        /* \"#utility.yul\":5638:5670   */\n      tag_102\n      jump\t// in\n    tag_208:\n        /* \"#utility.yul\":5633:5636   */\n      dup3\n        /* \"#utility.yul\":5626:5671   */\n      mstore\n        /* \"#utility.yul\":5535:5677   */\n      pop\n      pop\n      jump\t// out\n        /* \"#utility.yul\":5683:5782   */\n    tag_104:\n        /* \"#utility.yul\":5735:5741   */\n      0x00\n        /* \"#utility.yul\":5769:5774   */\n      dup2\n        /* \"#utility.yul\":5763:5775   */\n      mload\n        /* \"#utility.yul\":5753:5775   */\n      swap1\n      pop\n        /* \"#utility.yul\":5683:5782   */\n      swap2\n      swap1\n      pop\n      jump\t// out\n        /* \"#utility.yul\":5788:5957   */\n    tag_105:\n        /* \"#utility.yul\":5872:5883   */\n      0x00\n        /* \"#utility.yul\":5906:5912   */\n      dup3\n        /* \"#utility.yul\":5901:5904   */\n      dup3\n        /* \"#utility.yul\":5894:5913   */\n      mstore\n        /* \"#utility.yul\":5946:5950   */\n      0x20\n        /* \"#utility.yul\":5941:5944   */\n      dup3\n        /* \"#utility.yul\":5937:5951   */\n      add\n        /* \"#utility.yul\":5922:5951   */\n      swap1\n      pop\n        /* \"#utility.yul\":5788:5957   */\n      swap3\n      swap2\n      pop\n      pop\n      jump\t// out\n        /* \"#utility.yul\":5963:6102   */\n    tag_106:\n        /* \"#utility.yul\":6052:6058   */\n      dup3\n        /* \"#utility.yul\":6047:6050   */\n      dup2\n        /* \"#utility.yul\":6042:6045   */\n      dup4\n        /* \"#utility.yul\":6036:6059   */\n      mcopy\n        /* \"#utility.yul\":6093:6094   */\n      0x00\n        /* \"#utility.yul\":6084:6090   */\n      dup4\n        /* \"#utility.yul\":6079:6082   */\n      dup4\n        /* \"#utility.yul\":6075:6091   */\n      add\n        /* \"#utility.yul\":6068:6095   */\n      mstore\n        /* \"#utility.yul\":5963:6102   */\n      pop\n      pop\n      pop\n      jump\t// out\n        /* \"#utility.yul\":6108:6485   */\n    tag_107:\n        /* \"#utility.yul\":6196:6199   */\n      0x00\n        /* \"#utility.yul\":6224:6263   */\n      tag_213\n        /* \"#utility.yul\":6257:6262   */\n      dup3\n        /* \"#utility.yul\":6224:6263   */\n      tag_104\n      jump\t// in\n    tag_213:\n        /* \"#utility.yul\":6279:6350   */\n      tag_214\n        /* \"#utility.yul\":6343:6349   */\n      dup2\n        /* \"#utility.yul\":6338:6341   */\n      dup6\n        /* \"#utility.yul\":6279:6350   */\n      tag_105\n      jump\t// in\n    tag_214:\n        /* \"#utility.yul\":6272:6350   */\n      swap4\n      pop\n        /* \"#utility.yul\":6359:6424   */\n      tag_215\n        /* \"#utility.yul\":6417:6423   */\n      dup2\n        /* \"#utility.yul\":6412:6415   */\n      dup6\n        /* \"#utility.yul\":6405:6409   */\n      0x20\n        /* \"#utility.yul\":6398:6403   */\n      dup7\n        /* \"#utility.yul\":6394:6410   */\n      add\n        /* \"#utility.yul\":6359:6424   */\n      tag_106\n      jump\t// in\n    tag_215:\n        /* \"#utility.yul\":6449:6478   */\n      tag_216\n        /* \"#utility.yul\":6471:6477   */\n      dup2\n        /* \"#utility.yul\":6449:6478   */\n      tag_94\n      jump\t// in\n    tag_216:\n        /* \"#utility.yul\":6444:6447   */\n      dup5\n        /* \"#utility.yul\":6440:6479   */\n      add\n        /* \"#utility.yul\":6433:6479   */\n      swap2\n      pop\n        /* \"#utility.yul\":6200:6485   */\n      pop\n        /* \"#utility.yul\":6108:6485   */\n      swap3\n      swap2\n      pop\n      pop\n      jump\t// out\n        /* \"#utility.yul\":6491:6581   */\n    tag_108:\n        /* \"#utility.yul\":6525:6532   */\n      0x00\n        /* \"#utility.yul\":6568:6573   */\n      dup2\n        /* \"#utility.yul\":6561:6574   */\n      iszero\n        /* \"#utility.yul\":6554:6575   */\n      iszero\n        /* \"#utility.yul\":6543:6575   */\n      swap1\n      pop\n        /* \"#utility.yul\":6491:6581   */\n      swap2\n      swap1\n      pop\n      jump\t// out\n        /* \"#utility.yul\":6587:6696   */\n    tag_109:\n        /* \"#utility.yul\":6668:6689   */\n      tag_219\n        /* \"#utility.yul\":6683:6688   */\n      dup2\n        /* \"#utility.yul\":6668:6689   */\n      tag_108\n      jump\t// in\n    tag_219:\n        /* \"#utility.yul\":6663:6666   */\n      dup3\n        /* \"#utility.yul\":6656:6690   */\n      mstore\n        /* \"#utility.yul\":6587:6696   */\n      pop\n      pop\n      jump\t// out\n        /* \"#utility.yul\":6702:7679   */\n    tag_32:\n        /* \"#utility.yul\":6985:6989   */\n      0x00\n        /* \"#utility.yul\":7023:7026   */\n      0xc0\n        /* \"#utility.yul\":7012:7021   */\n      dup3\n        /* \"#utility.yul\":7008:7027   */\n      add\n        /* \"#utility.yul\":7000:7027   */\n      swap1\n      pop\n        /* \"#utility.yul\":7037:7108   */\n      tag_221\n        /* \"#utility.yul\":7105:7106   */\n      0x00\n        /* \"#utility.yul\":7094:7103   */\n      dup4\n        /* \"#utility.yul\":7090:7107   */\n      add\n        /* \"#utility.yul\":7081:7087   */\n      dup10\n        /* \"#utility.yul\":7037:7108   */\n      tag_89\n      jump\t// in\n    tag_221:\n        /* \"#utility.yul\":7118:7206   */\n      tag_222\n        /* \"#utility.yul\":7202:7204   */\n      0x20\n        /* \"#utility.yul\":7191:7200   */\n      dup4\n        /* \"#utility.yul\":7187:7205   */\n      add\n        /* \"#utility.yul\":7178:7184   */\n      dup9\n        /* \"#utility.yul\":7118:7206   */\n      tag_103\n      jump\t// in\n    tag_222:\n        /* \"#utility.yul\":7253:7262   */\n      dup2\n        /* \"#utility.yul\":7247:7251   */\n      dup2\n        /* \"#utility.yul\":7243:7263   */\n      sub\n        /* \"#utility.yul\":7238:7240   */\n      0x40\n        /* \"#utility.yul\":7227:7236   */\n      dup4\n        /* \"#utility.yul\":7223:7241   */\n      add\n        /* \"#utility.yul\":7216:7264   */\n      mstore\n        /* \"#utility.yul\":7281:7359   */\n      tag_223\n        /* \"#utility.yul\":7354:7358   */\n      dup2\n        /* \"#utility.yul\":7345:7351   */\n      dup8\n        /* \"#utility.yul\":7281:7359   */\n      tag_107\n      jump\t// in\n    tag_223:\n        /* \"#utility.yul\":7273:7359   */\n      swap1\n      pop\n        /* \"#utility.yul\":7406:7415   */\n      dup2\n        /* \"#utility.yul\":7400:7404   */\n      dup2\n        /* \"#utility.yul\":7396:7416   */\n      sub\n        /* \"#utility.yul\":7391:7393   */\n      0x60\n        /* \"#utility.yul\":7380:7389   */\n      dup4\n        /* \"#utility.yul\":7376:7394   */\n      add\n        /* \"#utility.yul\":7369:7417   */\n      mstore\n        /* \"#utility.yul\":7434:7512   */\n      tag_224\n        /* \"#utility.yul\":7507:7511   */\n      dup2\n        /* \"#utility.yul\":7498:7504   */\n      dup7\n        /* \"#utility.yul\":7434:7512   */\n      tag_107\n      jump\t// in\n    tag_224:\n        /* \"#utility.yul\":7426:7512   */\n      swap1\n      pop\n        /* \"#utility.yul\":7522:7595   */\n      tag_225\n        /* \"#utility.yul\":7590:7593   */\n      0x80\n        /* \"#utility.yul\":7579:7588   */\n      dup4\n        /* \"#utility.yul\":7575:7594   */\n      add\n        /* \"#utility.yul\":7566:7572   */\n      dup6\n        /* \"#utility.yul\":7522:7595   */\n      tag_89\n      jump\t// in\n    tag_225:\n        /* \"#utility.yul\":7605:7672   */\n      tag_226\n        /* \"#utility.yul\":7667:7670   */\n      0xa0\n        /* \"#utility.yul\":7656:7665   */\n      dup4\n        /* \"#utility.yul\":7652:7671   */\n      add\n        /* \"#utility.yul\":7643:7649   */\n      dup5\n        /* \"#utility.yul\":7605:7672   */\n      tag_109\n      jump\t// in\n    tag_226:\n        /* \"#utility.yul\":6702:7679   */\n      swap8\n      swap7\n      pop\n      pop\n      pop\n      pop\n      pop\n      pop\n      pop\n      jump\t// out\n        /* \"#utility.yul\":7685:7855   */\n    tag_110:\n        /* \"#utility.yul\":7825:7847   */\n      0x436f6e74656e74206e6f7420666f722073616c65000000000000000000000000\n        /* \"#utility.yul\":7821:7822   */\n      0x00\n        /* \"#utility.yul\":7813:7819   */\n      dup3\n        /* \"#utility.yul\":7809:7823   */\n      add\n        /* \"#utility.yul\":7802:7848   */\n      mstore\n        /* \"#utility.yul\":7685:7855   */\n      pop\n      jump\t// out\n        /* \"#utility.yul\":7861:8227   */\n    tag_111:\n        /* \"#utility.yul\":8003:8006   */\n      0x00\n        /* \"#utility.yul\":8024:8091   */\n      tag_229\n        /* \"#utility.yul\":8088:8090   */\n      0x14\n        /* \"#utility.yul\":8083:8086   */\n      dup4\n        /* \"#utility.yul\":8024:8091   */\n      tag_105\n      jump\t// in\n    tag_229:\n        /* \"#utility.yul\":8017:8091   */\n      swap2\n      pop\n        /* \"#utility.yul\":8100:8193   */\n      tag_230\n        /* \"#utility.yul\":8189:8192   */\n      dup3\n        /* \"#utility.yul\":8100:8193   */\n      tag_110\n      jump\t// in\n    tag_230:\n        /* \"#utility.yul\":8218:8220   */\n      0x20\n        /* \"#utility.yul\":8213:8216   */\n      dup3\n        /* \"#utility.yul\":8209:8221   */\n      add\n        /* \"#utility.yul\":8202:8221   */\n      swap1\n      pop\n        /* \"#utility.yul\":7861:8227   */\n      swap2\n      swap1\n      pop\n      jump\t// out\n        /* \"#utility.yul\":8233:8652   */\n    tag_40:\n        /* \"#utility.yul\":8399:8403   */\n      0x00\n        /* \"#utility.yul\":8437:8439   */\n      0x20\n        /* \"#utility.yul\":8426:8435   */\n      dup3\n        /* \"#utility.yul\":8422:8440   */\n      add\n        /* \"#utility.yul\":8414:8440   */\n      swap1\n      pop\n        /* \"#utility.yul\":8486:8495   */\n      dup2\n        /* \"#utility.yul\":8480:8484   */\n      dup2\n        /* \"#utility.yul\":8476:8496   */\n      sub\n        /* \"#utility.yul\":8472:8473   */\n      0x00\n        /* \"#utility.yul\":8461:8470   */\n      dup4\n        /* \"#utility.yul\":8457:8474   */\n      add\n        /* \"#utility.yul\":8450:8497   */\n      mstore\n        /* \"#utility.yul\":8514:8645   */\n      tag_232\n        /* \"#utility.yul\":8640:8644   */\n      dup2\n        /* \"#utility.yul\":8514:8645   */\n      tag_111\n      jump\t// in\n    tag_232:\n        /* \"#utility.yul\":8506:8645   */\n      swap1\n      pop\n        /* \"#utility.yul\":8233:8652   */\n      swap2\n      swap1\n      pop\n      jump\t// out\n        /* \"#utility.yul\":8658:8831   */\n    tag_112:\n        /* \"#utility.yul\":8798:8823   */\n      0x496e73756666696369656e742066756e64732073656e74000000000000000000\n        /* \"#utility.yul\":8794:8795   */\n      0x00\n        /* \"#utility.yul\":8786:8792   */\n      dup3\n        /* \"#utility.yul\":8782:8796   */\n      add\n        /* \"#utility.yul\":8775:8824   */\n      mstore\n        /* \"#utility.yul\":8658:8831   */\n      pop\n      jump\t// out\n        /* \"#utility.yul\":8837:9203   */\n    tag_113:\n        /* \"#utility.yul\":8979:8982   */\n      0x00\n        /* \"#utility.yul\":9000:9067   */\n      tag_235\n        /* \"#utility.yul\":9064:9066   */\n      0x17\n        /* \"#utility.yul\":9059:9062   */\n      dup4\n        /* \"#utility.yul\":9000:9067   */\n      tag_105\n      jump\t// in\n    tag_235:\n        /* \"#utility.yul\":8993:9067   */\n      swap2\n      pop\n        /* \"#utility.yul\":9076:9169   */\n      tag_236\n        /* \"#utility.yul\":9165:9168   */\n      dup3\n        /* \"#utility.yul\":9076:9169   */\n      tag_112\n      jump\t// in\n    tag_236:\n        /* \"#utility.yul\":9194:9196   */\n      0x20\n        /* \"#utility.yul\":9189:9192   */\n      dup3\n        /* \"#utility.yul\":9185:9197   */\n      add\n        /* \"#utility.yul\":9178:9197   */\n      swap1\n      pop\n        /* \"#utility.yul\":8837:9203   */\n      swap2\n      swap1\n      pop\n      jump\t// out\n        /* \"#utility.yul\":9209:9628   */\n    tag_43:\n        /* \"#utility.yul\":9375:9379   */\n      0x00\n        /* \"#utility.yul\":9413:9415   */\n      0x20\n        /* \"#utility.yul\":9402:9411   */\n      dup3\n        /* \"#utility.yul\":9398:9416   */\n      add\n        /* \"#utility.yul\":9390:9416   */\n      swap1\n      pop\n        /* \"#utility.yul\":9462:9471   */\n      dup2\n        /* \"#utility.yul\":9456:9460   */\n      dup2\n        /* \"#utility.yul\":9452:9472   */\n      sub\n        /* \"#utility.yul\":9448:9449   */\n      0x00\n        /* \"#utility.yul\":9437:9446   */\n      dup4\n        /* \"#utility.yul\":9433:9450   */\n      add\n        /* \"#utility.yul\":9426:9473   */\n      mstore\n        /* \"#utility.yul\":9490:9621   */\n      tag_238\n        /* \"#utility.yul\":9616:9620   */\n      dup2\n        /* \"#utility.yul\":9490:9621   */\n      tag_113\n      jump\t// in\n    tag_238:\n        /* \"#utility.yul\":9482:9621   */\n      swap1\n      pop\n        /* \"#utility.yul\":9209:9628   */\n      swap2\n      swap1\n      pop\n      jump\t// out\n        /* \"#utility.yul\":9634:9814   */\n    tag_114:\n        /* \"#utility.yul\":9682:9759   */\n      0x4e487b7100000000000000000000000000000000000000000000000000000000\n        /* \"#utility.yul\":9679:9680   */\n      0x00\n        /* \"#utility.yul\":9672:9760   */\n      mstore\n        /* \"#utility.yul\":9779:9783   */\n      0x11\n        /* \"#utility.yul\":9776:9777   */\n      0x04\n        /* \"#utility.yul\":9769:9784   */\n      mstore\n        /* \"#utility.yul\":9803:9807   */\n      0x24\n        /* \"#utility.yul\":9800:9801   */\n      0x00\n        /* \"#utility.yul\":9793:9808   */\n      revert\n        /* \"#utility.yul\":9820:10011   */\n    tag_45:\n        /* \"#utility.yul\":9860:9863   */\n      0x00\n        /* \"#utility.yul\":9879:9899   */\n      tag_241\n        /* \"#utility.yul\":9897:9898   */\n      dup3\n        /* \"#utility.yul\":9879:9899   */\n      tag_88\n      jump\t// in\n    tag_241:\n        /* \"#utility.yul\":9874:9899   */\n      swap2\n      pop\n        /* \"#utility.yul\":9913:9933   */\n      tag_242\n        /* \"#utility.yul\":9931:9932   */\n      dup4\n        /* \"#utility.yul\":9913:9933   */\n      tag_88\n      jump\t// in\n    tag_242:\n        /* \"#utility.yul\":9908:9933   */\n      swap3\n      pop\n        /* \"#utility.yul\":9956:9957   */\n      dup3\n        /* \"#utility.yul\":9953:9954   */\n      dup3\n        /* \"#utility.yul\":9949:9958   */\n      add\n        /* \"#utility.yul\":9942:9958   */\n      swap1\n      pop\n        /* \"#utility.yul\":9977:9980   */\n      dup1\n        /* \"#utility.yul\":9974:9975   */\n      dup3\n        /* \"#utility.yul\":9971:9981   */\n      gt\n        /* \"#utility.yul\":9968:10004   */\n      iszero\n      tag_243\n      jumpi\n        /* \"#utility.yul\":9984:10002   */\n      tag_244\n      tag_114\n      jump\t// in\n    tag_244:\n        /* \"#utility.yul\":9968:10004   */\n    tag_243:\n        /* \"#utility.yul\":9820:10011   */\n      swap3\n      swap2\n      pop\n      pop\n      jump\t// out\n        /* \"#utility.yul\":10017:10349   */\n    tag_47:\n        /* \"#utility.yul\":10138:10142   */\n      0x00\n        /* \"#utility.yul\":10176:10178   */\n      0x40\n        /* \"#utility.yul\":10165:10174   */\n      dup3\n        /* \"#utility.yul\":10161:10179   */\n      add\n        /* \"#utility.yul\":10153:10179   */\n      swap1\n      pop\n        /* \"#utility.yul\":10189:10260   */\n      tag_246\n        /* \"#utility.yul\":10257:10258   */\n      0x00\n        /* \"#utility.yul\":10246:10255   */\n      dup4\n        /* \"#utility.yul\":10242:10259   */\n      add\n        /* \"#utility.yul\":10233:10239   */\n      dup6\n        /* \"#utility.yul\":10189:10260   */\n      tag_89\n      jump\t// in\n    tag_246:\n        /* \"#utility.yul\":10270:10342   */\n      tag_247\n        /* \"#utility.yul\":10338:10340   */\n      0x20\n        /* \"#utility.yul\":10327:10336   */\n      dup4\n        /* \"#utility.yul\":10323:10341   */\n      add\n        /* \"#utility.yul\":10314:10320   */\n      dup5\n        /* \"#utility.yul\":10270:10342   */\n      tag_89\n      jump\t// in\n    tag_247:\n        /* \"#utility.yul\":10017:10349   */\n      swap4\n      swap3\n      pop\n      pop\n      pop\n      jump\t// out\n        /* \"#utility.yul\":10355:10527   */\n    tag_115:\n        /* \"#utility.yul\":10495:10519   */\n      0x4e6f2062616c616e636520746f20776974686472617700000000000000000000\n        /* \"#utility.yul\":10491:10492   */\n      0x00\n        /* \"#utility.yul\":10483:10489   */\n      dup3\n        /* \"#utility.yul\":10479:10493   */\n      add\n        /* \"#utility.yul\":10472:10520   */\n      mstore\n        /* \"#utility.yul\":10355:10527   */\n      pop\n      jump\t// out\n        /* \"#utility.yul\":10533:10899   */\n    tag_116:\n        /* \"#utility.yul\":10675:10678   */\n      0x00\n        /* \"#utility.yul\":10696:10763   */\n      tag_250\n        /* \"#utility.yul\":10760:10762   */\n      0x16\n        /* \"#utility.yul\":10755:10758   */\n      dup4\n        /* \"#utility.yul\":10696:10763   */\n      tag_105\n      jump\t// in\n    tag_250:\n        /* \"#utility.yul\":10689:10763   */\n      swap2\n      pop\n        /* \"#utility.yul\":10772:10865   */\n      tag_251\n        /* \"#utility.yul\":10861:10864   */\n      dup3\n        /* \"#utility.yul\":10772:10865   */\n      tag_115\n      jump\t// in\n    tag_251:\n        /* \"#utility.yul\":10890:10892   */\n      0x20\n        /* \"#utility.yul\":10885:10888   */\n      dup3\n        /* \"#utility.yul\":10881:10893   */\n      add\n        /* \"#utility.yul\":10874:10893   */\n      swap1\n      pop\n        /* \"#utility.yul\":10533:10899   */\n      swap2\n      swap1\n      pop\n      jump\t// out\n        /* \"#utility.yul\":10905:11324   */\n    tag_51:\n        /* \"#utility.yul\":11071:11075   */\n      0x00\n        /* \"#utility.yul\":11109:11111   */\n      0x20\n        /* \"#utility.yul\":11098:11107   */\n      dup3\n        /* \"#utility.yul\":11094:11112   */\n      add\n        /* \"#utility.yul\":11086:11112   */\n      swap1\n      pop\n        /* \"#utility.yul\":11158:11167   */\n      dup2\n        /* \"#utility.yul\":11152:11156   */\n      dup2\n        /* \"#utility.yul\":11148:11168   */\n      sub\n        /* \"#utility.yul\":11144:11145   */\n      0x00\n        /* \"#utility.yul\":11133:11142   */\n      dup4\n        /* \"#utility.yul\":11129:11146   */\n      add\n        /* \"#utility.yul\":11122:11169   */\n      mstore\n        /* \"#utility.yul\":11186:11317   */\n      tag_253\n        /* \"#utility.yul\":11312:11316   */\n      dup2\n        /* \"#utility.yul\":11186:11317   */\n      tag_116\n      jump\t// in\n    tag_253:\n        /* \"#utility.yul\":11178:11317   */\n      swap1\n      pop\n        /* \"#utility.yul\":10905:11324   */\n      swap2\n      swap1\n      pop\n      jump\t// out\n        /* \"#utility.yul\":11330:11497   */\n    tag_117:\n        /* \"#utility.yul\":11470:11489   */\n      0x5469746c65206973207265717569726564000000000000000000000000000000\n        /* \"#utility.yul\":11466:11467   */\n      0x00\n        /* \"#utility.yul\":11458:11464   */\n      dup3\n        /* \"#utility.yul\":11454:11468   */\n      add\n        /* \"#utility.yul\":11447:11490   */\n      mstore\n        /* \"#utility.yul\":11330:11497   */\n      pop\n      jump\t// out\n        /* \"#utility.yul\":11503:11869   */\n    tag_118:\n        /* \"#utility.yul\":11645:11648   */\n      0x00\n        /* \"#utility.yul\":11666:11733   */\n      tag_256\n        /* \"#utility.yul\":11730:11732   */\n      0x11\n        /* \"#utility.yul\":11725:11728   */\n      dup4\n        /* \"#utility.yul\":11666:11733   */\n      tag_105\n      jump\t// in\n    tag_256:\n        /* \"#utility.yul\":11659:11733   */\n      swap2\n      pop\n        /* \"#utility.yul\":11742:11835   */\n      tag_257\n        /* \"#utility.yul\":11831:11834   */\n      dup3\n        /* \"#utility.yul\":11742:11835   */\n      tag_117\n      jump\t// in\n    tag_257:\n        /* \"#utility.yul\":11860:11862   */\n      0x20\n        /* \"#utility.yul\":11855:11858   */\n      dup3\n        /* \"#utility.yul\":11851:11863   */\n      add\n        /* \"#utility.yul\":11844:11863   */\n      swap1\n      pop\n        /* \"#utility.yul\":11503:11869   */\n      swap2\n      swap1\n      pop\n      jump\t// out\n        /* \"#utility.yul\":11875:12294   */\n    tag_57:\n        /* \"#utility.yul\":12041:12045   */\n      0x00\n        /* \"#utility.yul\":12079:12081   */\n      0x20\n        /* \"#utility.yul\":12068:12077   */\n      dup3\n        /* \"#utility.yul\":12064:12082   */\n      add\n        /* \"#utility.yul\":12056:12082   */\n      swap1\n      pop\n        /* \"#utility.yul\":12128:12137   */\n      dup2\n        /* \"#utility.yul\":12122:12126   */\n      dup2\n        /* \"#utility.yul\":12118:12138   */\n      sub\n        /* \"#utility.yul\":12114:12115   */\n      0x00\n        /* \"#utility.yul\":12103:12112   */\n      dup4\n        /* \"#utility.yul\":12099:12116   */\n      add\n        /* \"#utility.yul\":12092:12139   */\n      mstore\n        /* \"#utility.yul\":12156:12287   */\n      tag_259\n        /* \"#utility.yul\":12282:12286   */\n      dup2\n        /* \"#utility.yul\":12156:12287   */\n      tag_118\n      jump\t// in\n    tag_259:\n        /* \"#utility.yul\":12148:12287   */\n      swap1\n      pop\n        /* \"#utility.yul\":11875:12294   */\n      swap2\n      swap1\n      pop\n      jump\t// out\n        /* \"#utility.yul\":12300:12474   */\n    tag_119:\n        /* \"#utility.yul\":12440:12466   */\n      0x436f6e74656e7420686173682069732072657175697265640000000000000000\n        /* \"#utility.yul\":12436:12437   */\n      0x00\n        /* \"#utility.yul\":12428:12434   */\n      dup3\n        /* \"#utility.yul\":12424:12438   */\n      add\n        /* \"#utility.yul\":12417:12467   */\n      mstore\n        /* \"#utility.yul\":12300:12474   */\n      pop\n      jump\t// out\n        /* \"#utility.yul\":12480:12846   */\n    tag_120:\n        /* \"#utility.yul\":12622:12625   */\n      0x00\n        /* \"#utility.yul\":12643:12710   */\n      tag_262\n        /* \"#utility.yul\":12707:12709   */\n      0x18\n        /* \"#utility.yul\":12702:12705   */\n      dup4\n        /* \"#utility.yul\":12643:12710   */\n      tag_105\n      jump\t// in\n    tag_262:\n        /* \"#utility.yul\":12636:12710   */\n      swap2\n      pop\n        /* \"#utility.yul\":12719:12812   */\n      tag_263\n        /* \"#utility.yul\":12808:12811   */\n      dup3\n        /* \"#utility.yul\":12719:12812   */\n      tag_119\n      jump\t// in\n    tag_263:\n        /* \"#utility.yul\":12837:12839   */\n      0x20\n        /* \"#utility.yul\":12832:12835   */\n      dup3\n        /* \"#utility.yul\":12828:12840   */\n      add\n        /* \"#utility.yul\":12821:12840   */\n      swap1\n      pop\n        /* \"#utility.yul\":12480:12846   */\n      swap2\n      swap1\n      pop\n      jump\t// out\n        /* \"#utility.yul\":12852:13271   */\n    tag_60:\n        /* \"#utility.yul\":13018:13022   */\n      0x00\n        /* \"#utility.yul\":13056:13058   */\n      0x20\n        /* \"#utility.yul\":13045:13054   */\n      dup3\n        /* \"#utility.yul\":13041:13059   */\n      add\n        /* \"#utility.yul\":13033:13059   */\n      swap1\n      pop\n        /* \"#utility.yul\":13105:13114   */\n      dup2\n        /* \"#utility.yul\":13099:13103   */\n      dup2\n        /* \"#utility.yul\":13095:13115   */\n      sub\n        /* \"#utility.yul\":13091:13092   */\n      0x00\n        /* \"#utility.yul\":13080:13089   */\n      dup4\n        /* \"#utility.yul\":13076:13093   */\n      add\n        /* \"#utility.yul\":13069:13116   */\n      mstore\n        /* \"#utility.yul\":13133:13264   */\n      tag_265\n        /* \"#utility.yul\":13259:13263   */\n      dup2\n        /* \"#utility.yul\":13133:13264   */\n      tag_120\n      jump\t// in\n    tag_265:\n        /* \"#utility.yul\":13125:13264   */\n      swap1\n      pop\n        /* \"#utility.yul\":12852:13271   */\n      swap2\n      swap1\n      pop\n      jump\t// out\n        /* \"#utility.yul\":13277:13458   */\n    tag_121:\n        /* \"#utility.yul\":13417:13450   */\n      0x5072696365206d7573742062652067726561746572207468616e207a65726f00\n        /* \"#utility.yul\":13413:13414   */\n      0x00\n        /* \"#utility.yul\":13405:13411   */\n      dup3\n        /* \"#utility.yul\":13401:13415   */\n      add\n        /* \"#utility.yul\":13394:13451   */\n      mstore\n        /* \"#utility.yul\":13277:13458   */\n      pop\n      jump\t// out\n        /* \"#utility.yul\":13464:13830   */\n    tag_122:\n        /* \"#utility.yul\":13606:13609   */\n      0x00\n        /* \"#utility.yul\":13627:13694   */\n      tag_268\n        /* \"#utility.yul\":13691:13693   */\n      0x1f\n        /* \"#utility.yul\":13686:13689   */\n      dup4\n        /* \"#utility.yul\":13627:13694   */\n      tag_105\n      jump\t// in\n    tag_268:\n        /* \"#utility.yul\":13620:13694   */\n      swap2\n      pop\n        /* \"#utility.yul\":13703:13796   */\n      tag_269\n        /* \"#utility.yul\":13792:13795   */\n      dup3\n        /* \"#utility.yul\":13703:13796   */\n      tag_121\n      jump\t// in\n    tag_269:\n        /* \"#utility.yul\":13821:13823   */\n      0x20\n        /* \"#utility.yul\":13816:13819   */\n      dup3\n        /* \"#utility.yul\":13812:13824   */\n      add\n        /* \"#utility.yul\":13805:13824   */\n      swap1\n      pop\n        /* \"#utility.yul\":13464:13830   */\n      swap2\n      swap1\n      pop\n      jump\t// out\n        /* \"#utility.yul\":13836:14255   */\n    tag_63:\n        /* \"#utility.yul\":14002:14006   */\n      0x00\n        /* \"#utility.yul\":14040:14042   */\n      0x20\n        /* \"#utility.yul\":14029:14038   */\n      dup3\n        /* \"#utility.yul\":14025:14043   */\n      add\n        /* \"#utility.yul\":14017:14043   */\n      swap1\n      pop\n        /* \"#utility.yul\":14089:14098   */\n      dup2\n        /* \"#utility.yul\":14083:14087   */\n      dup2\n        /* \"#utility.yul\":14079:14099   */\n      sub\n        /* \"#utility.yul\":14075:14076   */\n      0x00\n        /* \"#utility.yul\":14064:14073   */\n      dup4\n        /* \"#utility.yul\":14060:14077   */\n      add\n        /* \"#utility.yul\":14053:14100   */\n      mstore\n        /* \"#utility.yul\":14117:14248   */\n      tag_271\n        /* \"#utility.yul\":14243:14247   */\n      dup2\n        /* \"#utility.yul\":14117:14248   */\n      tag_122\n      jump\t// in\n    tag_271:\n        /* \"#utility.yul\":14109:14248   */\n      swap1\n      pop\n        /* \"#utility.yul\":13836:14255   */\n      swap2\n      swap1\n      pop\n      jump\t// out\n        /* \"#utility.yul\":14261:14494   */\n    tag_65:\n        /* \"#utility.yul\":14300:14303   */\n      0x00\n        /* \"#utility.yul\":14323:14347   */\n      tag_273\n        /* \"#utility.yul\":14341:14346   */\n      dup3\n        /* \"#utility.yul\":14323:14347   */\n      tag_88\n      jump\t// in\n    tag_273:\n        /* \"#utility.yul\":14314:14347   */\n      swap2\n      pop\n        /* \"#utility.yul\":14369:14435   */\n      0xffffffffffffffffffffffffffffffffffffffffffffffffffffffffffffffff\n        /* \"#utility.yul\":14362:14367   */\n      dup3\n        /* \"#utility.yul\":14359:14436   */\n      sub\n        /* \"#utility.yul\":14356:14459   */\n      tag_274\n      jumpi\n        /* \"#utility.yul\":14439:14457   */\n      tag_275\n      tag_114\n      jump\t// in\n    tag_275:\n        /* \"#utility.yul\":14356:14459   */\n    tag_274:\n        /* \"#utility.yul\":14486:14487   */\n      0x01\n        /* \"#utility.yul\":14479:14484   */\n      dup3\n        /* \"#utility.yul\":14475:14488   */\n      add\n        /* \"#utility.yul\":14468:14488   */\n      swap1\n      pop\n        /* \"#utility.yul\":14261:14494   */\n      swap2\n      swap1\n      pop\n      jump\t// out\n        /* \"#utility.yul\":14500:14680   */\n    tag_123:\n        /* \"#utility.yul\":14548:14625   */\n      0x4e487b7100000000000000000000000000000000000000000000000000000000\n        /* \"#utility.yul\":14545:14546   */\n      0x00\n        /* \"#utility.yul\":14538:14626   */\n      mstore\n        /* \"#utility.yul\":14645:14649   */\n      0x22\n        /* \"#utility.yul\":14642:14643   */\n      0x04\n        /* \"#utility.yul\":14635:14650   */\n      mstore\n        /* \"#utility.yul\":14669:14673   */\n      0x24\n        /* \"#utility.yul\":14666:14667   */\n      0x00\n        /* \"#utility.yul\":14659:14674   */\n      revert\n        /* \"#utility.yul\":14686:15006   */\n    tag_71:\n        /* \"#utility.yul\":14730:14736   */\n      0x00\n        /* \"#utility.yul\":14767:14768   */\n      0x02\n        /* \"#utility.yul\":14761:14765   */\n      dup3\n        /* \"#utility.yul\":14757:14769   */\n      div\n        /* \"#utility.yul\":14747:14769   */\n      swap1\n      pop\n        /* \"#utility.yul\":14814:14815   */\n      0x01\n        /* \"#utility.yul\":14808:14812   */\n      dup3\n        /* \"#utility.yul\":14804:14816   */\n      and\n        /* \"#utility.yul\":14835:14853   */\n      dup1\n        /* \"#utility.yul\":14825:14906   */\n      tag_278\n      jumpi\n        /* \"#utility.yul\":14891:14895   */\n      0x7f\n        /* \"#utility.yul\":14883:14889   */\n      dup3\n        /* \"#utility.yul\":14879:14896   */\n      and\n        /* \"#utility.yul\":14869:14896   */\n      swap2\n      pop\n        /* \"#utility.yul\":14825:14906   */\n    tag_278:\n        /* \"#utility.yul\":14953:14955   */\n      0x20\n        /* \"#utility.yul\":14945:14951   */\n      dup3\n        /* \"#utility.yul\":14942:14956   */\n      lt\n        /* \"#utility.yul\":14922:14940   */\n      dup2\n        /* \"#utility.yul\":14919:14957   */\n      sub\n        /* \"#utility.yul\":14916:15000   */\n      tag_279\n      jumpi\n        /* \"#utility.yul\":14972:14990   */\n      tag_280\n      tag_123\n      jump\t// in\n    tag_280:\n        /* \"#utility.yul\":14916:15000   */\n    tag_279:\n        /* \"#utility.yul\":14737:15006   */\n      pop\n        /* \"#utility.yul\":14686:15006   */\n      swap2\n      swap1\n      pop\n      jump\t// out\n        /* \"#utility.yul\":15012:15153   */\n    tag_124:\n        /* \"#utility.yul\":15061:15065   */\n      0x00\n        /* \"#utility.yul\":15084:15087   */\n      dup2\n        /* \"#utility.yul\":15076:15087   */\n      swap1\n      pop\n        /* \"#utility.yul\":15107:15110   */\n      dup2\n        /* \"#utility.yul\":15104:15105   */\n      0x00\n        /* \"#utility.yul\":15097:15111   */\n      mstore\n        /* \"#utility.yul\":15141:15145   */\n      0x20\n        /* \"#utility.yul\":15138:15139   */\n      0x00\n        /* \"#utility.yul\":15128:15146   */\n      keccak256\n        /* \"#utility.yul\":15120:15146   */\n      swap1\n      pop\n        /* \"#utility.yul\":15012:15153   */\n      swap2\n      swap1\n      pop\n      jump\t// out\n        /* \"#utility.yul\":15159:15252   */\n    tag_125:\n        /* \"#utility.yul\":15196:15202   */\n      0x00\n        /* \"#utility.yul\":15243:15245   */\n      0x20\n        /* \"#utility.yul\":15238:15240   */\n      0x1f\n        /* \"#utility.yul\":15231:15236   */\n      dup4\n        /* \"#utility.yul\":15227:15241   */\n      add\n        /* \"#utility.yul\":15223:15246   */\n      div\n        /* \"#utility.yul\":15213:15246   */\n      swap1\n      pop\n        /* \"#utility.yul\":15159:15252   */\n      swap2\n      swap1\n      pop\n      jump\t// out\n        /* \"#utility.yul\":15258:15365   */\n    tag_126:\n        /* \"#utility.yul\":15302:15310   */\n      0x00\n        /* \"#utility.yul\":15352:15357   */\n      dup3\n        /* \"#utility.yul\":15346:15350   */\n      dup3\n        /* \"#utility.yul\":15342:15358   */\n      shl\n        /* \"#utility.yul\":15321:15358   */\n      swap1\n      pop\n        /* \"#utility.yul\":15258:15365   */\n      swap3\n      swap2\n      pop\n      pop\n      jump\t// out\n        /* \"#utility.yul\":15371:15764   */\n    tag_127:\n        /* \"#utility.yul\":15440:15446   */\n      0x00\n        /* \"#utility.yul\":15490:15491   */\n      0x08\n        /* \"#utility.yul\":15478:15488   */\n      dup4\n        /* \"#utility.yul\":15474:15492   */\n      mul\n        /* \"#utility.yul\":15513:15610   */\n      tag_285\n        /* \"#utility.yul\":15543:15609   */\n      0xffffffffffffffffffffffffffffffffffffffffffffffffffffffffffffffff\n        /* \"#utility.yul\":15532:15541   */\n      dup3\n        /* \"#utility.yul\":15513:15610   */\n      tag_126\n      jump\t// in\n    tag_285:\n        /* \"#utility.yul\":15631:15670   */\n      tag_286\n        /* \"#utility.yul\":15661:15669   */\n      dup7\n        /* \"#utility.yul\":15650:15659   */\n      dup4\n        /* \"#utility.yul\":15631:15670   */\n      tag_126\n      jump\t// in\n    tag_286:\n        /* \"#utility.yul\":15619:15670   */\n      swap6\n      pop\n        /* \"#utility.yul\":15703:15707   */\n      dup1\n        /* \"#utility.yul\":15699:15708   */\n      not\n        /* \"#utility.yul\":15692:15697   */\n      dup5\n        /* \"#utility.yul\":15688:15709   */\n      and\n        /* \"#utility.yul\":15679:15709   */\n      swap4\n      pop\n        /* \"#utility.yul\":15752:15756   */\n      dup1\n        /* \"#utility.yul\":15742:15750   */\n      dup7\n        /* \"#utility.yul\":15738:15757   */\n      and\n        /* \"#utility.yul\":15731:15736   */\n      dup5\n        /* \"#utility.yul\":15728:15758   */\n      or\n        /* \"#utility.yul\":15718:15758   */\n      swap3\n      pop\n        /* \"#utility.yul\":15447:15764   */\n      pop\n      pop\n        /* \"#utility.yul\":15371:15764   */\n      swap4\n      swap3\n      pop\n      pop\n      pop\n      jump\t// out\n        /* \"#utility.yul\":15770:15830   */\n    tag_128:\n        /* \"#utility.yul\":15798:15801   */\n      0x00\n        /* \"#utility.yul\":15819:15824   */\n      dup2\n        /* \"#utility.yul\":15812:15824   */\n      swap1\n      pop\n        /* \"#utility.yul\":15770:15830   */\n      swap2\n      swap1\n      pop\n      jump\t// out\n        /* \"#utility.yul\":15836:15978   */\n    tag_129:\n        /* \"#utility.yul\":15886:15895   */\n      0x00\n        /* \"#utility.yul\":15919:15972   */\n      tag_289\n        /* \"#utility.yul\":15937:15971   */\n      tag_290\n        /* \"#utility.yul\":15946:15970   */\n      tag_291\n        /* \"#utility.yul\":15964:15969   */\n      dup5\n        /* \"#utility.yul\":15946:15970   */\n      tag_88\n      jump\t// in\n    tag_291:\n        /* \"#utility.yul\":15937:15971   */\n      tag_128\n      jump\t// in\n    tag_290:\n        /* \"#utility.yul\":15919:15972   */\n      tag_88\n      jump\t// in\n    tag_289:\n        /* \"#utility.yul\":15906:15972   */\n      swap1\n      pop\n        /* \"#utility.yul\":15836:15978   */\n      swap2\n      swap1\n      pop\n      jump\t// out\n        /* \"#utility.yul\":15984:16059   */\n    tag_130:\n        /* \"#utility.yul\":16027:16030   */\n      0x00\n        /* \"#utility.yul\":16048:16053   */\n      dup2\n        /* \"#utility.yul\":16041:16053   */\n      swap1\n      pop\n        /* \"#utility.yul\":15984:16059   */\n      swap2\n      swap1\n      pop\n      jump\t// out\n        /* \"#utility.yul\":16065:16334   */\n    tag_131:\n        /* \"#utility.yul\":16175:16214   */\n      tag_294\n        /* \"#utility.yul\":16206:16213   */\n      dup4\n        /* \"#utility.yul\":16175:16214   */\n      tag_129\n      jump\t// in\n    tag_294:\n        /* \"#utility.yul\":16236:16327   */\n      tag_295\n        /* \"#utility.yul\":16285:16326   */\n      tag_296\n        /* \"#utility.yul\":16309:16325   */\n      dup3\n        /* \"#utility.yul\":16285:16326   */\n      tag_130\n      jump\t// in\n    tag_296:\n        /* \"#utility.yul\":16277:16283   */\n      dup5\n        /* \"#utility.yul\":16270:16274   */\n      dup5\n        /* \"#utility.yul\":16264:16275   */\n      sload\n        /* \"#utility.yul\":16236:16327   */\n      tag_127\n      jump\t// in\n    tag_295:\n        /* \"#utility.yul\":16230:16234   */\n      dup3\n        /* \"#utility.yul\":16223:16328   */\n      sstore\n        /* \"#utility.yul\":16141:16334   */\n      pop\n        /* \"#utility.yul\":16065:16334   */\n      pop\n      pop\n      pop\n      jump\t// out\n        /* \"#utility.yul\":16340:16413   */\n    tag_132:\n        /* \"#utility.yul\":16385:16388   */\n      0x00\n        /* \"#utility.yul\":16340:16413   */\n      swap1\n      jump\t// out\n        /* \"#utility.yul\":16419:16608   */\n    tag_133:\n        /* \"#utility.yul\":16496:16528   */\n      tag_299\n      tag_132\n      jump\t// in\n    tag_299:\n        /* \"#utility.yul\":16537:16602   */\n      tag_300\n        /* \"#utility.yul\":16595:16601   */\n      dup2\n        /* \"#utility.yul\":16587:16593   */\n      dup5\n        /* \"#utility.yul\":16581:16585   */\n      dup5\n        /* \"#utility.yul\":16537:16602   */\n      tag_131\n      jump\t// in\n    tag_300:\n        /* \"#utility.yul\":16472:16608   */\n      pop\n        /* \"#utility.yul\":16419:16608   */\n      pop\n      pop\n      jump\t// out\n        /* \"#utility.yul\":16614:16800   */\n    tag_134:\n        /* \"#utility.yul\":16674:16794   */\n    tag_302:\n        /* \"#utility.yul\":16691:16694   */\n      dup2\n        /* \"#utility.yul\":16684:16689   */\n      dup2\n        /* \"#utility.yul\":16681:16695   */\n      lt\n        /* \"#utility.yul\":16674:16794   */\n      iszero\n      tag_304\n      jumpi\n        /* \"#utility.yul\":16745:16784   */\n      tag_305\n        /* \"#utility.yul\":16782:16783   */\n      0x00\n        /* \"#utility.yul\":16775:16780   */\n      dup3\n        /* \"#utility.yul\":16745:16784   */\n      tag_133\n      jump\t// in\n    tag_305:\n        /* \"#utility.yul\":16718:16719   */\n      0x01\n        /* \"#utility.yul\":16711:16716   */\n      dup2\n        /* \"#utility.yul\":16707:16720   */\n      add\n        /* \"#utility.yul\":16698:16720   */\n      swap1\n      pop\n        /* \"#utility.yul\":16674:16794   */\n      jump(tag_302)\n    tag_304:\n        /* \"#utility.yul\":16614:16800   */\n      pop\n      pop\n      jump\t// out\n        /* \"#utility.yul\":16806:17349   */\n    tag_135:\n        /* \"#utility.yul\":16907:16909   */\n      0x1f\n        /* \"#utility.yul\":16902:16905   */\n      dup3\n        /* \"#utility.yul\":16899:16910   */\n      gt\n        /* \"#utility.yul\":16896:17342   */\n      iszero\n      tag_307\n      jumpi\n        /* \"#utility.yul\":16941:16979   */\n      tag_308\n        /* \"#utility.yul\":16973:16978   */\n      dup2\n        /* \"#utility.yul\":16941:16979   */\n      tag_124\n      jump\t// in\n    tag_308:\n        /* \"#utility.yul\":17025:17054   */\n      tag_309\n        /* \"#utility.yul\":17043:17053   */\n      dup5\n        /* \"#utility.yul\":17025:17054   */\n      tag_125\n      jump\t// in\n    tag_309:\n        /* \"#utility.yul\":17015:17023   */\n      dup2\n        /* \"#utility.yul\":17011:17055   */\n      add\n        /* \"#utility.yul\":17208:17210   */\n      0x20\n        /* \"#utility.yul\":17196:17206   */\n      dup6\n        /* \"#utility.yul\":17193:17211   */\n      lt\n        /* \"#utility.yul\":17190:17239   */\n      iszero\n      tag_310\n      jumpi\n        /* \"#utility.yul\":17229:17237   */\n      dup2\n        /* \"#utility.yul\":17214:17237   */\n      swap1\n      pop\n        /* \"#utility.yul\":17190:17239   */\n    tag_310:\n        /* \"#utility.yul\":17252:17332   */\n      tag_311\n        /* \"#utility.yul\":17308:17330   */\n      tag_312\n        /* \"#utility.yul\":17326:17329   */\n      dup6\n        /* \"#utility.yul\":17308:17330   */\n      tag_125\n      jump\t// in\n    tag_312:\n        /* \"#utility.yul\":17298:17306   */\n      dup4\n        /* \"#utility.yul\":17294:17331   */\n      add\n        /* \"#utility.yul\":17281:17292   */\n      dup3\n        /* \"#utility.yul\":17252:17332   */\n      tag_134\n      jump\t// in\n    tag_311:\n        /* \"#utility.yul\":16911:17342   */\n      pop\n      pop\n        /* \"#utility.yul\":16896:17342   */\n    tag_307:\n        /* \"#utility.yul\":16806:17349   */\n      pop\n      pop\n      pop\n      jump\t// out\n        /* \"#utility.yul\":17355:17472   */\n    tag_136:\n        /* \"#utility.yul\":17409:17417   */\n      0x00\n        /* \"#utility.yul\":17459:17464   */\n      dup3\n        /* \"#utility.yul\":17453:17457   */\n      dup3\n        /* \"#utility.yul\":17449:17465   */\n      shr\n        /* \"#utility.yul\":17428:17465   */\n      swap1\n      pop\n        /* \"#utility.yul\":17355:17472   */\n      swap3\n      swap2\n      pop\n      pop\n      jump\t// out\n        /* \"#utility.yul\":17478:17647   */\n    tag_137:\n        /* \"#utility.yul\":17522:17528   */\n      0x00\n        /* \"#utility.yul\":17555:17606   */\n      tag_315\n        /* \"#utility.yul\":17603:17604   */\n      0x00\n        /* \"#utility.yul\":17599:17605   */\n      not\n        /* \"#utility.yul\":17591:17596   */\n      dup5\n        /* \"#utility.yul\":17588:17589   */\n      0x08\n        /* \"#utility.yul\":17584:17597   */\n      mul\n        /* \"#utility.yul\":17555:17606   */\n      tag_136\n      jump\t// in\n    tag_315:\n        /* \"#utility.yul\":17551:17607   */\n      not\n        /* \"#utility.yul\":17636:17640   */\n      dup1\n        /* \"#utility.yul\":17630:17634   */\n      dup4\n        /* \"#utility.yul\":17626:17641   */\n      and\n        /* \"#utility.yul\":17616:17641   */\n      swap2\n      pop\n        /* \"#utility.yul\":17529:17647   */\n      pop\n        /* \"#utility.yul\":17478:17647   */\n      swap3\n      swap2\n      pop\n      pop\n      jump\t// out\n        /* \"#utility.yul\":17652:17947   */\n    tag_138:\n        /* \"#utility.yul\":17728:17732   */\n      0x00\n        /* \"#utility.yul\":17874:17903   */\n      tag_317\n        /* \"#utility.yul\":17899:17902   */\n      dup4\n        /* \"#utility.yul\":17893:17897   */\n      dup4\n        /* \"#utility.yul\":17874:17903   */\n      tag_137\n      jump\t// in\n    tag_317:\n        /* \"#utility.yul\":17866:17903   */\n      swap2\n      pop\n        /* \"#utility.yul\":17936:17939   */\n      dup3\n        /* \"#utility.yul\":17933:17934   */\n      0x02\n        /* \"#utility.yul\":17929:17940   */\n      mul\n        /* \"#utility.yul\":17923:17927   */\n      dup3\n        /* \"#utility.yul\":17920:17941   */\n      or\n        /* \"#utility.yul\":17912:17941   */\n      swap1\n      pop\n        /* \"#utility.yul\":17652:17947   */\n      swap3\n      swap2\n      pop\n      pop\n      jump\t// out\n        /* \"#utility.yul\":17952:19347   */\n    tag_67:\n        /* \"#utility.yul\":18069:18106   */\n      tag_319\n        /* \"#utility.yul\":18102:18105   */\n      dup3\n        /* \"#utility.yul\":18069:18106   */\n      tag_104\n      jump\t// in\n    tag_319:\n        /* \"#utility.yul\":18171:18189   */\n      0xffffffffffffffff\n        /* \"#utility.yul\":18163:18169   */\n      dup2\n        /* \"#utility.yul\":18160:18190   */\n      gt\n        /* \"#utility.yul\":18157:18213   */\n      iszero\n      tag_320\n      jumpi\n        /* \"#utility.yul\":18193:18211   */\n      tag_321\n      tag_95\n      jump\t// in\n    tag_321:\n        /* \"#utility.yul\":18157:18213   */\n    tag_320:\n        /* \"#utility.yul\":18237:18275   */\n      tag_322\n        /* \"#utility.yul\":18269:18273   */\n      dup3\n        /* \"#utility.yul\":18263:18274   */\n      sload\n        /* \"#utility.yul\":18237:18275   */\n      tag_71\n      jump\t// in\n    tag_322:\n        /* \"#utility.yul\":18322:18389   */\n      tag_323\n        /* \"#utility.yul\":18382:18388   */\n      dup3\n        /* \"#utility.yul\":18374:18380   */\n      dup3\n        /* \"#utility.yul\":18368:18372   */\n      dup6\n        /* \"#utility.yul\":18322:18389   */\n      tag_135\n      jump\t// in\n    tag_323:\n        /* \"#utility.yul\":18416:18417   */\n      0x00\n        /* \"#utility.yul\":18440:18444   */\n      0x20\n        /* \"#utility.yul\":18427:18444   */\n      swap1\n      pop\n        /* \"#utility.yul\":18472:18474   */\n      0x1f\n        /* \"#utility.yul\":18464:18470   */\n      dup4\n        /* \"#utility.yul\":18461:18475   */\n      gt\n        /* \"#utility.yul\":18489:18490   */\n      0x01\n        /* \"#utility.yul\":18484:19102   */\n      dup2\n      eq\n      tag_325\n      jumpi\n        /* \"#utility.yul\":19146:19147   */\n      0x00\n        /* \"#utility.yul\":19163:19169   */\n      dup5\n        /* \"#utility.yul\":19160:19237   */\n      iszero\n      tag_326\n      jumpi\n        /* \"#utility.yul\":19212:19221   */\n      dup3\n        /* \"#utility.yul\":19207:19210   */\n      dup8\n        /* \"#utility.yul\":19203:19222   */\n      add\n        /* \"#utility.yul\":19197:19223   */\n      mload\n        /* \"#utility.yul\":19188:19223   */\n      swap1\n      pop\n        /* \"#utility.yul\":19160:19237   */\n    tag_326:\n        /* \"#utility.yul\":19263:19330   */\n      tag_327\n        /* \"#utility.yul\":19323:19329   */\n      dup6\n        /* \"#utility.yul\":19316:19321   */\n      dup3\n        /* \"#utility.yul\":19263:19330   */\n      tag_138\n      jump\t// in\n    tag_327:\n        /* \"#utility.yul\":19257:19261   */\n      dup7\n        /* \"#utility.yul\":19250:19331   */\n      sstore\n        /* \"#utility.yul\":19119:19341   */\n      pop\n        /* \"#utility.yul\":18454:19341   */\n      jump(tag_324)\n        /* \"#utility.yul\":18484:19102   */\n    tag_325:\n        /* \"#utility.yul\":18536:18540   */\n      0x1f\n        /* \"#utility.yul\":18532:18541   */\n      not\n        /* \"#utility.yul\":18524:18530   */\n      dup5\n        /* \"#utility.yul\":18520:18542   */\n      and\n        /* \"#utility.yul\":18570:18607   */\n      tag_328\n        /* \"#utility.yul\":18602:18606   */\n      dup7\n        /* \"#utility.yul\":18570:18607   */\n      tag_124\n      jump\t// in\n    tag_328:\n        /* \"#utility.yul\":18629:18630   */\n      0x00\n        /* \"#utility.yul\":18643:18851   */\n    tag_329:\n        /* \"#utility.yul\":18657:18664   */\n      dup3\n        /* \"#utility.yul\":18654:18655   */\n      dup2\n        /* \"#utility.yul\":18651:18665   */\n      lt\n        /* \"#utility.yul\":18643:18851   */\n      iszero\n      tag_331\n      jumpi\n        /* \"#utility.yul\":18736:18745   */\n      dup5\n        /* \"#utility.yul\":18731:18734   */\n      dup10\n        /* \"#utility.yul\":18727:18746   */\n      add\n        /* \"#utility.yul\":18721:18747   */\n      mload\n        /* \"#utility.yul\":18713:18719   */\n      dup3\n        /* \"#utility.yul\":18706:18748   */\n      sstore\n        /* \"#utility.yul\":18787:18788   */\n      0x01\n        /* \"#utility.yul\":18779:18785   */\n      dup3\n        /* \"#utility.yul\":18775:18789   */\n      add\n        /* \"#utility.yul\":18765:18789   */\n      swap2\n      pop\n        /* \"#utility.yul\":18834:18836   */\n      0x20\n        /* \"#utility.yul\":18823:18832   */\n      dup6\n        /* \"#utility.yul\":18819:18837   */\n      add\n        /* \"#utility.yul\":18806:18837   */\n      swap5\n      pop\n        /* \"#utility.yul\":18680:18684   */\n      0x20\n        /* \"#utility.yul\":18677:18678   */\n      dup2\n        /* \"#utility.yul\":18673:18685   */\n      add\n        /* \"#utility.yul\":18668:18685   */\n      swap1\n      pop\n        /* \"#utility.yul\":18643:18851   */\n      jump(tag_329)\n    tag_331:\n        /* \"#utility.yul\":18879:18885   */\n      dup7\n        /* \"#utility.yul\":18870:18877   */\n      dup4\n        /* \"#utility.yul\":18867:18886   */\n      lt\n        /* \"#utility.yul\":18864:19043   */\n      iszero\n      tag_332\n      jumpi\n        /* \"#utility.yul\":18937:18946   */\n      dup5\n        /* \"#utility.yul\":18932:18935   */\n      dup10\n        /* \"#utility.yul\":18928:18947   */\n      add\n        /* \"#utility.yul\":18922:18948   */\n      mload\n        /* \"#utility.yul\":18980:19028   */\n      tag_333\n        /* \"#utility.yul\":19022:19026   */\n      0x1f\n        /* \"#utility.yul\":19014:19020   */\n      dup10\n        /* \"#utility.yul\":19010:19027   */\n      and\n        /* \"#utility.yul\":18999:19008   */\n      dup3\n        /* \"#utility.yul\":18980:19028   */\n      tag_137\n      jump\t// in\n    tag_333:\n        /* \"#utility.yul\":18972:18978   */\n      dup4\n        /* \"#utility.yul\":18965:19029   */\n      sstore\n        /* \"#utility.yul\":18887:19043   */\n      pop\n        /* \"#utility.yul\":18864:19043   */\n    tag_332:\n        /* \"#utility.yul\":19089:19090   */\n      0x01\n        /* \"#utility.yul\":19085:19086   */\n      0x02\n        /* \"#utility.yul\":19077:19083   */\n      dup9\n        /* \"#utility.yul\":19073:19087   */\n      mul\n        /* \"#utility.yul\":19069:19091   */\n      add\n        /* \"#utility.yul\":19063:19067   */\n      dup9\n        /* \"#utility.yul\":19056:19092   */\n      sstore\n        /* \"#utility.yul\":18491:19102   */\n      pop\n      pop\n      pop\n        /* \"#utility.yul\":18454:19341   */\n    tag_324:\n      pop\n        /* \"#utility.yul\":18044:19347   */\n      pop\n      pop\n      pop\n        /* \"#utility.yul\":17952:19347   */\n      pop\n      pop\n      jump\t// out\n\n    auxdata: 0xa264697066735822122012c5eca0a4c3b9633bb675f9f2714a722380c6bdd18213223178ca182f6498bf64736f6c634300081a0033\n}\n",
				"bytecode": {
					"linkReferences": {},
					"object": "6080604052348015600e575f80fd5b506111db8061001c5f395ff3fe608060405260043610610054575f3560e01c806327e235e31461005857806328f2ac28146100945780635fd8c710146100b0578063782b5e63146100c6578063b5ecf912146100ee578063e6a9aba31461012f575b5f80fd5b348015610063575f80fd5b5061007e60048036038101906100799190610822565b610159565b60405161008b9190610865565b60405180910390f35b6100ae60048036038101906100a991906108a8565b61016e565b005b3480156100bb575f80fd5b506100c4610301565b005b3480156100d1575f80fd5b506100ec60048036038101906100e79190610a0f565b61040d565b005b3480156100f9575f80fd5b50610114600480360381019061010f91906108a8565b610643565b60405161012696959493929190610b31565b60405180910390f35b34801561013a575f80fd5b506101436107b1565b6040516101509190610865565b60405180910390f35b6001602052805f5260405f205f915090505481565b5f805f8381526020019081526020015f209050806005015f9054906101000a900460ff166101d1576040517f08c379a00000000000000000000000000000000000000000000000000000000081526004016101c890610be8565b60405180910390fd5b8060040154341015610218576040517f08c379a000000000000000000000000000000000000000000000000000000000815260040161020f90610c50565b60405180910390fd5b3460015f836001015f9054906101000a900473ffffffffffffffffffffffffffffffffffffffff1673ffffffffffffffffffffffffffffffffffffffff1673ffffffffffffffffffffffffffffffffffffffff1681526020019081526020015f205f8282546102879190610c9b565b925050819055505f816005015f6101000a81548160ff0219169083151502179055503373ffffffffffffffffffffffffffffffffffffffff167fc11917d17603adca99ae03c49747f035153321e0f1b1550d66ce71f0c7f4d0cd8383600401546040516102f5929190610cce565b60405180910390a25050565b5f60015f3373ffffffffffffffffffffffffffffffffffffffff1673ffffffffffffffffffffffffffffffffffffffff1681526020019081526020015f205490505f8111610384576040517f08c379a000000000000000000000000000000000000000000000000000000000815260040161037b90610d3f565b60405180910390fd5b5f60015f3373ffffffffffffffffffffffffffffffffffffffff1673ffffffffffffffffffffffffffffffffffffffff1681526020019081526020015f20819055503373ffffffffffffffffffffffffffffffffffffffff166108fc8290811502906040515f60405180830381858888f19350505050158015610409573d5f803e3d5ffd5b5050565b5f835111610450576040517f08c379a000000000000000000000000000000000000000000000000000000000815260040161044790610da7565b60405180910390fd5b5f825111610493576040517f08c379a000000000000000000000000000000000000000000000000000000000815260040161048a90610e0f565b60405180910390fd5b5f81116104d5576040517f08c379a00000000000000000000000000000000000000000000000000000000081526004016104cc90610e77565b60405180910390fd5b60025f8154809291906104e790610e95565b91905055506040518060c0016040528060025481526020013373ffffffffffffffffffffffffffffffffffffffff168152602001848152602001838152602001828152602001600115158152505f8060025481526020019081526020015f205f820151815f01556020820151816001015f6101000a81548173ffffffffffffffffffffffffffffffffffffffff021916908373ffffffffffffffffffffffffffffffffffffffff16021790555060408201518160020190816105a991906110d6565b5060608201518160030190816105bf91906110d6565b506080820151816004015560a0820151816005015f6101000a81548160ff0219169083151502179055509050503373ffffffffffffffffffffffffffffffffffffffff167fdf860c984583335608af8b72c71fcabf8246988884cfb4650a9aba9a0ebdf47e60025483604051610636929190610cce565b60405180910390a2505050565b5f602052805f5260405f205f91509050805f015490806001015f9054906101000a900473ffffffffffffffffffffffffffffffffffffffff169080600201805461068c90610f09565b80601f01602080910402602001604051908101604052809291908181526020018280546106b890610f09565b80156107035780601f106106da57610100808354040283529160200191610703565b820191905f5260205f20905b8154815290600101906020018083116106e657829003601f168201915b50505050509080600301805461071890610f09565b80601f016020809104026020016040519081016040528092919081815260200182805461074490610f09565b801561078f5780601f106107665761010080835404028352916020019161078f565b820191905f5260205f20905b81548152906001019060200180831161077257829003601f168201915b505050505090806004015490806005015f9054906101000a900460ff16905086565b60025481565b5f604051905090565b5f80fd5b5f80fd5b5f73ffffffffffffffffffffffffffffffffffffffff82169050919050565b5f6107f1826107c8565b9050919050565b610801816107e7565b811461080b575f80fd5b50565b5f8135905061081c816107f8565b92915050565b5f60208284031215610837576108366107c0565b5b5f6108448482850161080e565b91505092915050565b5f819050919050565b61085f8161084d565b82525050565b5f6020820190506108785f830184610856565b92915050565b6108878161084d565b8114610891575f80fd5b50565b5f813590506108a28161087e565b92915050565b5f602082840312156108bd576108bc6107c0565b5b5f6108ca84828501610894565b91505092915050565b5f80fd5b5f80fd5b5f601f19601f8301169050919050565b7f4e487b71000000000000000000000000000000000000000000000000000000005f52604160045260245ffd5b610921826108db565b810181811067ffffffffffffffff821117156109405761093f6108eb565b5b80604052505050565b5f6109526107b7565b905061095e8282610918565b919050565b5f67ffffffffffffffff82111561097d5761097c6108eb565b5b610986826108db565b9050602081019050919050565b828183375f83830152505050565b5f6109b36109ae84610963565b610949565b9050828152602081018484840111156109cf576109ce6108d7565b5b6109da848285610993565b509392505050565b5f82601f8301126109f6576109f56108d3565b5b8135610a068482602086016109a1565b91505092915050565b5f805f60608486031215610a2657610a256107c0565b5b5f84013567ffffffffffffffff811115610a4357610a426107c4565b5b610a4f868287016109e2565b935050602084013567ffffffffffffffff811115610a7057610a6f6107c4565b5b610a7c868287016109e2565b9250506040610a8d86828701610894565b9150509250925092565b5f610aa1826107c8565b9050919050565b610ab181610a97565b82525050565b5f81519050919050565b5f82825260208201905092915050565b8281835e5f83830152505050565b5f610ae982610ab7565b610af38185610ac1565b9350610b03818560208601610ad1565b610b0c816108db565b840191505092915050565b5f8115159050919050565b610b2b81610b17565b82525050565b5f60c082019050610b445f830189610856565b610b516020830188610aa8565b8181036040830152610b638187610adf565b90508181036060830152610b778186610adf565b9050610b866080830185610856565b610b9360a0830184610b22565b979650505050505050565b7f436f6e74656e74206e6f7420666f722073616c650000000000000000000000005f82015250565b5f610bd2601483610ac1565b9150610bdd82610b9e565b602082019050919050565b5f6020820190508181035f830152610bff81610bc6565b9050919050565b7f496e73756666696369656e742066756e64732073656e740000000000000000005f82015250565b5f610c3a601783610ac1565b9150610c4582610c06565b602082019050919050565b5f6020820190508181035f830152610c6781610c2e565b9050919050565b7f4e487b71000000000000000000000000000000000000000000000000000000005f52601160045260245ffd5b5f610ca58261084d565b9150610cb08361084d565b9250828201905080821115610cc857610cc7610c6e565b5b92915050565b5f604082019050610ce15f830185610856565b610cee6020830184610856565b9392505050565b7f4e6f2062616c616e636520746f207769746864726177000000000000000000005f82015250565b5f610d29601683610ac1565b9150610d3482610cf5565b602082019050919050565b5f6020820190508181035f830152610d5681610d1d565b9050919050565b7f5469746c652069732072657175697265640000000000000000000000000000005f82015250565b5f610d91601183610ac1565b9150610d9c82610d5d565b602082019050919050565b5f6020820190508181035f830152610dbe81610d85565b9050919050565b7f436f6e74656e74206861736820697320726571756972656400000000000000005f82015250565b5f610df9601883610ac1565b9150610e0482610dc5565b602082019050919050565b5f6020820190508181035f830152610e2681610ded565b9050919050565b7f5072696365206d7573742062652067726561746572207468616e207a65726f005f82015250565b5f610e61601f83610ac1565b9150610e6c82610e2d565b602082019050919050565b5f6020820190508181035f830152610e8e81610e55565b9050919050565b5f610e9f8261084d565b91507fffffffffffffffffffffffffffffffffffffffffffffffffffffffffffffffff8203610ed157610ed0610c6e565b5b600182019050919050565b7f4e487b71000000000000000000000000000000000000000000000000000000005f52602260045260245ffd5b5f6002820490506001821680610f2057607f821691505b602082108103610f3357610f32610edc565b5b50919050565b5f819050815f5260205f209050919050565b5f6020601f8301049050919050565b5f82821b905092915050565b5f60088302610f957fffffffffffffffffffffffffffffffffffffffffffffffffffffffffffffffff82610f5a565b610f9f8683610f5a565b95508019841693508086168417925050509392505050565b5f819050919050565b5f610fda610fd5610fd08461084d565b610fb7565b61084d565b9050919050565b5f819050919050565b610ff383610fc0565b611007610fff82610fe1565b848454610f66565b825550505050565b5f90565b61101b61100f565b611026818484610fea565b505050565b5b818110156110495761103e5f82611013565b60018101905061102c565b5050565b601f82111561108e5761105f81610f39565b61106884610f4b565b81016020851015611077578190505b61108b61108385610f4b565b83018261102b565b50505b505050565b5f82821c905092915050565b5f6110ae5f1984600802611093565b1980831691505092915050565b5f6110c6838361109f565b9150826002028217905092915050565b6110df82610ab7565b67ffffffffffffffff8111156110f8576110f76108eb565b5b6111028254610f09565b61110d82828561104d565b5f60209050601f83116001811461113e575f841561112c578287015190505b61113685826110bb565b86555061119d565b601f19841661114c86610f39565b5f5b828110156111735784890151825560018201915060208501945060208101905061114e565b86831015611190578489015161118c601f89168261109f565b8355505b6001600288020188555050505b50505050505056fea264697066735822122012c5eca0a4c3b9633bb675f9f2714a722380c6bdd18213223178ca182f6498bf64736f6c634300081a0033",
					"opcodes": "PUSH1 0x80 PUSH1 0x40 MSTORE CALLVALUE DUP1 ISZERO PUSH1 0xE JUMPI PUSH0 DUP1 REVERT JUMPDEST POP PUSH2 0x11DB DUP1 PUSH2 0x1C PUSH0 CODECOPY PUSH0 RETURN INVALID PUSH1 0x80 PUSH1 0x40 MSTORE PUSH1 0x4 CALLDATASIZE LT PUSH2 0x54 JUMPI PUSH0 CALLDATALOAD PUSH1 0xE0 SHR DUP1 PUSH4 0x27E235E3 EQ PUSH2 0x58 JUMPI DUP1 PUSH4 0x28F2AC28 EQ PUSH2 0x94 JUMPI DUP1 PUSH4 0x5FD8C710 EQ PUSH2 0xB0 JUMPI DUP1 PUSH4 0x782B5E63 EQ PUSH2 0xC6 JUMPI DUP1 PUSH4 0xB5ECF912 EQ PUSH2 0xEE JUMPI DUP1 PUSH4 0xE6A9ABA3 EQ PUSH2 0x12F JUMPI JUMPDEST PUSH0 DUP1 REVERT JUMPDEST CALLVALUE DUP1 ISZERO PUSH2 0x63 JUMPI PUSH0 DUP1 REVERT JUMPDEST POP PUSH2 0x7E PUSH1 0x4 DUP1 CALLDATASIZE SUB DUP2 ADD SWAP1 PUSH2 0x79 SWAP2 SWAP1 PUSH2 0x822 JUMP JUMPDEST PUSH2 0x159 JUMP JUMPDEST PUSH1 0x40 MLOAD PUSH2 0x8B SWAP2 SWAP1 PUSH2 0x865 JUMP JUMPDEST PUSH1 0x40 MLOAD DUP1 SWAP2 SUB SWAP1 RETURN JUMPDEST PUSH2 0xAE PUSH1 0x4 DUP1 CALLDATASIZE SUB DUP2 ADD SWAP1 PUSH2 0xA9 SWAP2 SWAP1 PUSH2 0x8A8 JUMP JUMPDEST PUSH2 0x16E JUMP JUMPDEST STOP JUMPDEST CALLVALUE DUP1 ISZERO PUSH2 0xBB JUMPI PUSH0 DUP1 REVERT JUMPDEST POP PUSH2 0xC4 PUSH2 0x301 JUMP JUMPDEST STOP JUMPDEST CALLVALUE DUP1 ISZERO PUSH2 0xD1 JUMPI PUSH0 DUP1 REVERT JUMPDEST POP PUSH2 0xEC PUSH1 0x4 DUP1 CALLDATASIZE SUB DUP2 ADD SWAP1 PUSH2 0xE7 SWAP2 SWAP1 PUSH2 0xA0F JUMP JUMPDEST PUSH2 0x40D JUMP JUMPDEST STOP JUMPDEST CALLVALUE DUP1 ISZERO PUSH2 0xF9 JUMPI PUSH0 DUP1 REVERT JUMPDEST POP PUSH2 0x114 PUSH1 0x4 DUP1 CALLDATASIZE SUB DUP2 ADD SWAP1 PUSH2 0x10F SWAP2 SWAP1 PUSH2 0x8A8 JUMP JUMPDEST PUSH2 0x643 JUMP JUMPDEST PUSH1 0x40 MLOAD PUSH2 0x126 SWAP7 SWAP6 SWAP5 SWAP4 SWAP3 SWAP2 SWAP1 PUSH2 0xB31 JUMP JUMPDEST PUSH1 0x40 MLOAD DUP1 SWAP2 SUB SWAP1 RETURN JUMPDEST CALLVALUE DUP1 ISZERO PUSH2 0x13A JUMPI PUSH0 DUP1 REVERT JUMPDEST POP PUSH2 0x143 PUSH2 0x7B1 JUMP JUMPDEST PUSH1 0x40 MLOAD PUSH2 0x150 SWAP2 SWAP1 PUSH2 0x865 JUMP JUMPDEST PUSH1 0x40 MLOAD DUP1 SWAP2 SUB SWAP1 RETURN JUMPDEST PUSH1 0x1 PUSH1 0x20 MSTORE DUP1 PUSH0 MSTORE PUSH1 0x40 PUSH0 KECCAK256 PUSH0 SWAP2 POP SWAP1 POP SLOAD DUP2 JUMP JUMPDEST PUSH0 DUP1 PUSH0 DUP4 DUP2 MSTORE PUSH1 0x20 ADD SWAP1 DUP2 MSTORE PUSH1 0x20 ADD PUSH0 KECCAK256 SWAP1 POP DUP1 PUSH1 0x5 ADD PUSH0 SWAP1 SLOAD SWAP1 PUSH2 0x100 EXP SWAP1 DIV PUSH1 0xFF AND PUSH2 0x1D1 JUMPI PUSH1 0x40 MLOAD PUSH32 0x8C379A000000000000000000000000000000000000000000000000000000000 DUP2 MSTORE PUSH1 0x4 ADD PUSH2 0x1C8 SWAP1 PUSH2 0xBE8 JUMP JUMPDEST PUSH1 0x40 MLOAD DUP1 SWAP2 SUB SWAP1 REVERT JUMPDEST DUP1 PUSH1 0x4 ADD SLOAD CALLVALUE LT ISZERO PUSH2 0x218 JUMPI PUSH1 0x40 MLOAD PUSH32 0x8C379A000000000000000000000000000000000000000000000000000000000 DUP2 MSTORE PUSH1 0x4 ADD PUSH2 0x20F SWAP1 PUSH2 0xC50 JUMP JUMPDEST PUSH1 0x40 MLOAD DUP1 SWAP2 SUB SWAP1 REVERT JUMPDEST CALLVALUE PUSH1 0x1 PUSH0 DUP4 PUSH1 0x1 ADD PUSH0 SWAP1 SLOAD SWAP1 PUSH2 0x100 EXP SWAP1 DIV PUSH20 0xFFFFFFFFFFFFFFFFFFFFFFFFFFFFFFFFFFFFFFFF AND PUSH20 0xFFFFFFFFFFFFFFFFFFFFFFFFFFFFFFFFFFFFFFFF AND PUSH20 0xFFFFFFFFFFFFFFFFFFFFFFFFFFFFFFFFFFFFFFFF AND DUP2 MSTORE PUSH1 0x20 ADD SWAP1 DUP2 MSTORE PUSH1 0x20 ADD PUSH0 KECCAK256 PUSH0 DUP3 DUP3 SLOAD PUSH2 0x287 SWAP2 SWAP1 PUSH2 0xC9B JUMP JUMPDEST SWAP3 POP POP DUP2 SWAP1 SSTORE POP PUSH0 DUP2 PUSH1 0x5 ADD PUSH0 PUSH2 0x100 EXP DUP2 SLOAD DUP2 PUSH1 0xFF MUL NOT AND SWAP1 DUP4 ISZERO ISZERO MUL OR SWAP1 SSTORE POP CALLER PUSH20 0xFFFFFFFFFFFFFFFFFFFFFFFFFFFFFFFFFFFFFFFF AND PUSH32 0xC11917D17603ADCA99AE03C49747F035153321E0F1B1550D66CE71F0C7F4D0CD DUP4 DUP4 PUSH1 0x4 ADD SLOAD PUSH1 0x40 MLOAD PUSH2 0x2F5 SWAP3 SWAP2 SWAP1 PUSH2 0xCCE JUMP JUMPDEST PUSH1 0x40 MLOAD DUP1 SWAP2 SUB SWAP1 LOG2 POP POP JUMP JUMPDEST PUSH0 PUSH1 0x1 PUSH0 CALLER PUSH20 0xFFFFFFFFFFFFFFFFFFFFFFFFFFFFFFFFFFFFFFFF AND PUSH20 0xFFFFFFFFFFFFFFFFFFFFFFFFFFFFFFFFFFFFFFFF AND DUP2 MSTORE PUSH1 0x20 ADD SWAP1 DUP2 MSTORE PUSH1 0x20 ADD PUSH0 KECCAK256 SLOAD SWAP1 POP PUSH0 DUP2 GT PUSH2 0x384 JUMPI PUSH1 0x40 MLOAD PUSH32 0x8C379A000000000000000000000000000000000000000000000000000000000 DUP2 MSTORE PUSH1 0x4 ADD PUSH2 0x37B SWAP1 PUSH2 0xD3F JUMP JUMPDEST PUSH1 0x40 MLOAD DUP1 SWAP2 SUB SWAP1 REVERT JUMPDEST PUSH0 PUSH1 0x1 PUSH0 CALLER PUSH20 0xFFFFFFFFFFFFFFFFFFFFFFFFFFFFFFFFFFFFFFFF AND PUSH20 0xFFFFFFFFFFFFFFFFFFFFFFFFFFFFFFFFFFFFFFFF AND DUP2 MSTORE PUSH1 0x20 ADD SWAP1 DUP2 MSTORE PUSH1 0x20 ADD PUSH0 KECCAK256 DUP2 SWAP1 SSTORE POP CALLER PUSH20 0xFFFFFFFFFFFFFFFFFFFFFFFFFFFFFFFFFFFFFFFF AND PUSH2 0x8FC DUP3 SWAP1 DUP2 ISZERO MUL SWAP1 PUSH1 0x40 MLOAD PUSH0 PUSH1 0x40 MLOAD DUP1 DUP4 SUB DUP2 DUP6 DUP9 DUP9 CALL SWAP4 POP POP POP POP ISZERO DUP1 ISZERO PUSH2 0x409 JUMPI RETURNDATASIZE PUSH0 DUP1 RETURNDATACOPY RETURNDATASIZE PUSH0 REVERT JUMPDEST POP POP JUMP JUMPDEST PUSH0 DUP4 MLOAD GT PUSH2 0x450 JUMPI PUSH1 0x40 MLOAD PUSH32 0x8C379A000000000000000000000000000000000000000000000000000000000 DUP2 MSTORE PUSH1 0x4 ADD PUSH2 0x447 SWAP1 PUSH2 0xDA7 JUMP JUMPDEST PUSH1 0x40 MLOAD DUP1 SWAP2 SUB SWAP1 REVERT JUMPDEST PUSH0 DUP3 MLOAD GT PUSH2 0x493 JUMPI PUSH1 0x40 MLOAD PUSH32 0x8C379A000000000000000000000000000000000000000000000000000000000 DUP2 MSTORE PUSH1 0x4 ADD PUSH2 0x48A SWAP1 PUSH2 0xE0F JUMP JUMPDEST PUSH1 0x40 MLOAD DUP1 SWAP2 SUB SWAP1 REVERT JUMPDEST PUSH0 DUP2 GT PUSH2 0x4D5 JUMPI PUSH1 0x40 MLOAD PUSH32 0x8C379A000000000000000000000000000000000000000000000000000000000 DUP2 MSTORE PUSH1 0x4 ADD PUSH2 0x4CC SWAP1 PUSH2 0xE77 JUMP JUMPDEST PUSH1 0x40 MLOAD DUP1 SWAP2 SUB SWAP1 REVERT JUMPDEST PUSH1 0x2 PUSH0 DUP2 SLOAD DUP1 SWAP3 SWAP2 SWAP1 PUSH2 0x4E7 SWAP1 PUSH2 0xE95 JUMP JUMPDEST SWAP2 SWAP1 POP SSTORE POP PUSH1 0x40 MLOAD DUP1 PUSH1 0xC0 ADD PUSH1 0x40 MSTORE DUP1 PUSH1 0x2 SLOAD DUP2 MSTORE PUSH1 0x20 ADD CALLER PUSH20 0xFFFFFFFFFFFFFFFFFFFFFFFFFFFFFFFFFFFFFFFF AND DUP2 MSTORE PUSH1 0x20 ADD DUP5 DUP2 MSTORE PUSH1 0x20 ADD DUP4 DUP2 MSTORE PUSH1 0x20 ADD DUP3 DUP2 MSTORE PUSH1 0x20 ADD PUSH1 0x1 ISZERO ISZERO DUP2 MSTORE POP PUSH0 DUP1 PUSH1 0x2 SLOAD DUP2 MSTORE PUSH1 0x20 ADD SWAP1 DUP2 MSTORE PUSH1 0x20 ADD PUSH0 KECCAK256 PUSH0 DUP3 ADD MLOAD DUP2 PUSH0 ADD SSTORE PUSH1 0x20 DUP3 ADD MLOAD DUP2 PUSH1 0x1 ADD PUSH0 PUSH2 0x100 EXP DUP2 SLOAD DUP2 PUSH20 0xFFFFFFFFFFFFFFFFFFFFFFFFFFFFFFFFFFFFFFFF MUL NOT AND SWAP1 DUP4 PUSH20 0xFFFFFFFFFFFFFFFFFFFFFFFFFFFFFFFFFFFFFFFF AND MUL OR SWAP1 SSTORE POP PUSH1 0x40 DUP3 ADD MLOAD DUP2 PUSH1 0x2 ADD SWAP1 DUP2 PUSH2 0x5A9 SWAP2 SWAP1 PUSH2 0x10D6 JUMP JUMPDEST POP PUSH1 0x60 DUP3 ADD MLOAD DUP2 PUSH1 0x3 ADD SWAP1 DUP2 PUSH2 0x5BF SWAP2 SWAP1 PUSH2 0x10D6 JUMP JUMPDEST POP PUSH1 0x80 DUP3 ADD MLOAD DUP2 PUSH1 0x4 ADD SSTORE PUSH1 0xA0 DUP3 ADD MLOAD DUP2 PUSH1 0x5 ADD PUSH0 PUSH2 0x100 EXP DUP2 SLOAD DUP2 PUSH1 0xFF MUL NOT AND SWAP1 DUP4 ISZERO ISZERO MUL OR SWAP1 SSTORE POP SWAP1 POP POP CALLER PUSH20 0xFFFFFFFFFFFFFFFFFFFFFFFFFFFFFFFFFFFFFFFF AND PUSH32 0xDF860C984583335608AF8B72C71FCABF8246988884CFB4650A9ABA9A0EBDF47E PUSH1 0x2 SLOAD DUP4 PUSH1 0x40 MLOAD PUSH2 0x636 SWAP3 SWAP2 SWAP1 PUSH2 0xCCE JUMP JUMPDEST PUSH1 0x40 MLOAD DUP1 SWAP2 SUB SWAP1 LOG2 POP POP POP JUMP JUMPDEST PUSH0 PUSH1 0x20 MSTORE DUP1 PUSH0 MSTORE PUSH1 0x40 PUSH0 KECCAK256 PUSH0 SWAP2 POP SWAP1 POP DUP1 PUSH0 ADD SLOAD SWAP1 DUP1 PUSH1 0x1 ADD PUSH0 SWAP1 SLOAD SWAP1 PUSH2 0x100 EXP SWAP1 DIV PUSH20 0xFFFFFFFFFFFFFFFFFFFFFFFFFFFFFFFFFFFFFFFF AND SWAP1 DUP1 PUSH1 0x2 ADD DUP1 SLOAD PUSH2 0x68C SWAP1 PUSH2 0xF09 JUMP JUMPDEST DUP1 PUSH1 0x1F ADD PUSH1 0x20 DUP1 SWAP2 DIV MUL PUSH1 0x20 ADD PUSH1 0x40 MLOAD SWAP1 DUP2 ADD PUSH1 0x40 MSTORE DUP1 SWAP3 SWAP2 SWAP1 DUP2 DUP2 MSTORE PUSH1 0x20 ADD DUP3 DUP1 SLOAD PUSH2 0x6B8 SWAP1 PUSH2 0xF09 JUMP JUMPDEST DUP1 ISZERO PUSH2 0x703 JUMPI DUP1 PUSH1 0x1F LT PUSH2 0x6DA JUMPI PUSH2 0x100 DUP1 DUP4 SLOAD DIV MUL DUP4 MSTORE SWAP2 PUSH1 0x20 ADD SWAP2 PUSH2 0x703 JUMP JUMPDEST DUP3 ADD SWAP2 SWAP1 PUSH0 MSTORE PUSH1 0x20 PUSH0 KECCAK256 SWAP1 JUMPDEST DUP2 SLOAD DUP2 MSTORE SWAP1 PUSH1 0x1 ADD SWAP1 PUSH1 0x20 ADD DUP1 DUP4 GT PUSH2 0x6E6 JUMPI DUP3 SWAP1 SUB PUSH1 0x1F AND DUP3 ADD SWAP2 JUMPDEST POP POP POP POP POP SWAP1 DUP1 PUSH1 0x3 ADD DUP1 SLOAD PUSH2 0x718 SWAP1 PUSH2 0xF09 JUMP JUMPDEST DUP1 PUSH1 0x1F ADD PUSH1 0x20 DUP1 SWAP2 DIV MUL PUSH1 0x20 ADD PUSH1 0x40 MLOAD SWAP1 DUP2 ADD PUSH1 0x40 MSTORE DUP1 SWAP3 SWAP2 SWAP1 DUP2 DUP2 MSTORE PUSH1 0x20 ADD DUP3 DUP1 SLOAD PUSH2 0x744 SWAP1 PUSH2 0xF09 JUMP JUMPDEST DUP1 ISZERO PUSH2 0x78F JUMPI DUP1 PUSH1 0x1F LT PUSH2 0x766 JUMPI PUSH2 0x100 DUP1 DUP4 SLOAD DIV MUL DUP4 MSTORE SWAP2 PUSH1 0x20 ADD SWAP2 PUSH2 0x78F JUMP JUMPDEST DUP3 ADD SWAP2 SWAP1 PUSH0 MSTORE PUSH1 0x20 PUSH0 KECCAK256 SWAP1 JUMPDEST DUP2 SLOAD DUP2 MSTORE SWAP1 PUSH1 0x1 ADD SWAP1 PUSH1 0x20 ADD DUP1 DUP4 GT PUSH2 0x772 JUMPI DUP3 SWAP1 SUB PUSH1 0x1F AND DUP3 ADD SWAP2 JUMPDEST POP POP POP POP POP SWAP1 DUP1 PUSH1 0x4 ADD SLOAD SWAP1 DUP1 PUSH1 0x5 ADD PUSH0 SWAP1 SLOAD SWAP1 PUSH2 0x100 EXP SWAP1 DIV PUSH1 0xFF AND SWAP1 POP DUP7 JUMP JUMPDEST PUSH1 0x2 SLOAD DUP2 JUMP JUMPDEST PUSH0 PUSH1 0x40 MLOAD SWAP1 POP SWAP1 JUMP JUMPDEST PUSH0 DUP1 REVERT JUMPDEST PUSH0 DUP1 REVERT JUMPDEST PUSH0 PUSH20 0xFFFFFFFFFFFFFFFFFFFFFFFFFFFFFFFFFFFFFFFF DUP3 AND SWAP1 POP SWAP2 SWAP1 POP JUMP JUMPDEST PUSH0 PUSH2 0x7F1 DUP3 PUSH2 0x7C8 JUMP JUMPDEST SWAP1 POP SWAP2 SWAP1 POP JUMP JUMPDEST PUSH2 0x801 DUP2 PUSH2 0x7E7 JUMP JUMPDEST DUP2 EQ PUSH2 0x80B JUMPI PUSH0 DUP1 REVERT JUMPDEST POP JUMP JUMPDEST PUSH0 DUP2 CALLDATALOAD SWAP1 POP PUSH2 0x81C DUP2 PUSH2 0x7F8 JUMP JUMPDEST SWAP3 SWAP2 POP POP JUMP JUMPDEST PUSH0 PUSH1 0x20 DUP3 DUP5 SUB SLT ISZERO PUSH2 0x837 JUMPI PUSH2 0x836 PUSH2 0x7C0 JUMP JUMPDEST JUMPDEST PUSH0 PUSH2 0x844 DUP5 DUP3 DUP6 ADD PUSH2 0x80E JUMP JUMPDEST SWAP2 POP POP SWAP3 SWAP2 POP POP JUMP JUMPDEST PUSH0 DUP2 SWAP1 POP SWAP2 SWAP1 POP JUMP JUMPDEST PUSH2 0x85F DUP2 PUSH2 0x84D JUMP JUMPDEST DUP3 MSTORE POP POP JUMP JUMPDEST PUSH0 PUSH1 0x20 DUP3 ADD SWAP1 POP PUSH2 0x878 PUSH0 DUP4 ADD DUP5 PUSH2 0x856 JUMP JUMPDEST SWAP3 SWAP2 POP POP JUMP JUMPDEST PUSH2 0x887 DUP2 PUSH2 0x84D JUMP JUMPDEST DUP2 EQ PUSH2 0x891 JUMPI PUSH0 DUP1 REVERT JUMPDEST POP JUMP JUMPDEST PUSH0 DUP2 CALLDATALOAD SWAP1 POP PUSH2 0x8A2 DUP2 PUSH2 0x87E JUMP JUMPDEST SWAP3 SWAP2 POP POP JUMP JUMPDEST PUSH0 PUSH1 0x20 DUP3 DUP5 SUB SLT ISZERO PUSH2 0x8BD JUMPI PUSH2 0x8BC PUSH2 0x7C0 JUMP JUMPDEST JUMPDEST PUSH0 PUSH2 0x8CA DUP5 DUP3 DUP6 ADD PUSH2 0x894 JUMP JUMPDEST SWAP2 POP POP SWAP3 SWAP2 POP POP JUMP JUMPDEST PUSH0 DUP1 REVERT JUMPDEST PUSH0 DUP1 REVERT JUMPDEST PUSH0 PUSH1 0x1F NOT PUSH1 0x1F DUP4 ADD AND SWAP1 POP SWAP2 SWAP1 POP JUMP JUMPDEST PUSH32 0x4E487B7100000000000000000000000000000000000000000000000000000000 PUSH0 MSTORE PUSH1 0x41 PUSH1 0x4 MSTORE PUSH1 0x24 PUSH0 REVERT JUMPDEST PUSH2 0x921 DUP3 PUSH2 0x8DB JUMP JUMPDEST DUP2 ADD DUP2 DUP2 LT PUSH8 0xFFFFFFFFFFFFFFFF DUP3 GT OR ISZERO PUSH2 0x940 JUMPI PUSH2 0x93F PUSH2 0x8EB JUMP JUMPDEST JUMPDEST DUP1 PUSH1 0x40 MSTORE POP POP POP JUMP JUMPDEST PUSH0 PUSH2 0x952 PUSH2 0x7B7 JUMP JUMPDEST SWAP1 POP PUSH2 0x95E DUP3 DUP3 PUSH2 0x918 JUMP JUMPDEST SWAP2 SWAP1 POP JUMP JUMPDEST PUSH0 PUSH8 0xFFFFFFFFFFFFFFFF DUP3 GT ISZERO PUSH2 0x97D JUMPI PUSH2 0x97C PUSH2 0x8EB JUMP JUMPDEST JUMPDEST PUSH2 0x986 DUP3 PUSH2 0x8DB JUMP JUMPDEST SWAP1 POP PUSH1 0x20 DUP2 ADD SWAP1 POP SWAP2 SWAP1 POP JUMP JUMPDEST DUP3 DUP2 DUP4 CALLDATACOPY PUSH0 DUP4 DUP4 ADD MSTORE POP POP POP JUMP JUMPDEST PUSH0 PUSH2 0x9B3 PUSH2 0x9AE DUP5 PUSH2 0x963 JUMP JUMPDEST PUSH2 0x949 JUMP JUMPDEST SWAP1 POP DUP3 DUP2 MSTORE PUSH1 0x20 DUP2 ADD DUP5 DUP5 DUP5 ADD GT ISZERO PUSH2 0x9CF JUMPI PUSH2 0x9CE PUSH2 0x8D7 JUMP JUMPDEST JUMPDEST PUSH2 0x9DA DUP5 DUP3 DUP6 PUSH2 0x993 JUMP JUMPDEST POP SWAP4 SWAP3 POP POP POP JUMP JUMPDEST PUSH0 DUP3 PUSH1 0x1F DUP4 ADD SLT PUSH2 0x9F6 JUMPI PUSH2 0x9F5 PUSH2 0x8D3 JUMP JUMPDEST JUMPDEST DUP2 CALLDATALOAD PUSH2 0xA06 DUP5 DUP3 PUSH1 0x20 DUP7 ADD PUSH2 0x9A1 JUMP JUMPDEST SWAP2 POP POP SWAP3 SWAP2 POP POP JUMP JUMPDEST PUSH0 DUP1 PUSH0 PUSH1 0x60 DUP5 DUP7 SUB SLT ISZERO PUSH2 0xA26 JUMPI PUSH2 0xA25 PUSH2 0x7C0 JUMP JUMPDEST JUMPDEST PUSH0 DUP5 ADD CALLDATALOAD PUSH8 0xFFFFFFFFFFFFFFFF DUP2 GT ISZERO PUSH2 0xA43 JUMPI PUSH2 0xA42 PUSH2 0x7C4 JUMP JUMPDEST JUMPDEST PUSH2 0xA4F DUP7 DUP3 DUP8 ADD PUSH2 0x9E2 JUMP JUMPDEST SWAP4 POP POP PUSH1 0x20 DUP5 ADD CALLDATALOAD PUSH8 0xFFFFFFFFFFFFFFFF DUP2 GT ISZERO PUSH2 0xA70 JUMPI PUSH2 0xA6F PUSH2 0x7C4 JUMP JUMPDEST JUMPDEST PUSH2 0xA7C DUP7 DUP3 DUP8 ADD PUSH2 0x9E2 JUMP JUMPDEST SWAP3 POP POP PUSH1 0x40 PUSH2 0xA8D DUP7 DUP3 DUP8 ADD PUSH2 0x894 JUMP JUMPDEST SWAP2 POP POP SWAP3 POP SWAP3 POP SWAP3 JUMP JUMPDEST PUSH0 PUSH2 0xAA1 DUP3 PUSH2 0x7C8 JUMP JUMPDEST SWAP1 POP SWAP2 SWAP1 POP JUMP JUMPDEST PUSH2 0xAB1 DUP2 PUSH2 0xA97 JUMP JUMPDEST DUP3 MSTORE POP POP JUMP JUMPDEST PUSH0 DUP2 MLOAD SWAP1 POP SWAP2 SWAP1 POP JUMP JUMPDEST PUSH0 DUP3 DUP3 MSTORE PUSH1 0x20 DUP3 ADD SWAP1 POP SWAP3 SWAP2 POP POP JUMP JUMPDEST DUP3 DUP2 DUP4 MCOPY PUSH0 DUP4 DUP4 ADD MSTORE POP POP POP JUMP JUMPDEST PUSH0 PUSH2 0xAE9 DUP3 PUSH2 0xAB7 JUMP JUMPDEST PUSH2 0xAF3 DUP2 DUP6 PUSH2 0xAC1 JUMP JUMPDEST SWAP4 POP PUSH2 0xB03 DUP2 DUP6 PUSH1 0x20 DUP7 ADD PUSH2 0xAD1 JUMP JUMPDEST PUSH2 0xB0C DUP2 PUSH2 0x8DB JUMP JUMPDEST DUP5 ADD SWAP2 POP POP SWAP3 SWAP2 POP POP JUMP JUMPDEST PUSH0 DUP2 ISZERO ISZERO SWAP1 POP SWAP2 SWAP1 POP JUMP JUMPDEST PUSH2 0xB2B DUP2 PUSH2 0xB17 JUMP JUMPDEST DUP3 MSTORE POP POP JUMP JUMPDEST PUSH0 PUSH1 0xC0 DUP3 ADD SWAP1 POP PUSH2 0xB44 PUSH0 DUP4 ADD DUP10 PUSH2 0x856 JUMP JUMPDEST PUSH2 0xB51 PUSH1 0x20 DUP4 ADD DUP9 PUSH2 0xAA8 JUMP JUMPDEST DUP2 DUP2 SUB PUSH1 0x40 DUP4 ADD MSTORE PUSH2 0xB63 DUP2 DUP8 PUSH2 0xADF JUMP JUMPDEST SWAP1 POP DUP2 DUP2 SUB PUSH1 0x60 DUP4 ADD MSTORE PUSH2 0xB77 DUP2 DUP7 PUSH2 0xADF JUMP JUMPDEST SWAP1 POP PUSH2 0xB86 PUSH1 0x80 DUP4 ADD DUP6 PUSH2 0x856 JUMP JUMPDEST PUSH2 0xB93 PUSH1 0xA0 DUP4 ADD DUP5 PUSH2 0xB22 JUMP JUMPDEST SWAP8 SWAP7 POP POP POP POP POP POP POP JUMP JUMPDEST PUSH32 0x436F6E74656E74206E6F7420666F722073616C65000000000000000000000000 PUSH0 DUP3 ADD MSTORE POP JUMP JUMPDEST PUSH0 PUSH2 0xBD2 PUSH1 0x14 DUP4 PUSH2 0xAC1 JUMP JUMPDEST SWAP2 POP PUSH2 0xBDD DUP3 PUSH2 0xB9E JUMP JUMPDEST PUSH1 0x20 DUP3 ADD SWAP1 POP SWAP2 SWAP1 POP JUMP JUMPDEST PUSH0 PUSH1 0x20 DUP3 ADD SWAP1 POP DUP2 DUP2 SUB PUSH0 DUP4 ADD MSTORE PUSH2 0xBFF DUP2 PUSH2 0xBC6 JUMP JUMPDEST SWAP1 POP SWAP2 SWAP1 POP JUMP JUMPDEST PUSH32 0x496E73756666696369656E742066756E64732073656E74000000000000000000 PUSH0 DUP3 ADD MSTORE POP JUMP JUMPDEST PUSH0 PUSH2 0xC3A PUSH1 0x17 DUP4 PUSH2 0xAC1 JUMP JUMPDEST SWAP2 POP PUSH2 0xC45 DUP3 PUSH2 0xC06 JUMP JUMPDEST PUSH1 0x20 DUP3 ADD SWAP1 POP SWAP2 SWAP1 POP JUMP JUMPDEST PUSH0 PUSH1 0x20 DUP3 ADD SWAP1 POP DUP2 DUP2 SUB PUSH0 DUP4 ADD MSTORE PUSH2 0xC67 DUP2 PUSH2 0xC2E JUMP JUMPDEST SWAP1 POP SWAP2 SWAP1 POP JUMP JUMPDEST PUSH32 0x4E487B7100000000000000000000000000000000000000000000000000000000 PUSH0 MSTORE PUSH1 0x11 PUSH1 0x4 MSTORE PUSH1 0x24 PUSH0 REVERT JUMPDEST PUSH0 PUSH2 0xCA5 DUP3 PUSH2 0x84D JUMP JUMPDEST SWAP2 POP PUSH2 0xCB0 DUP4 PUSH2 0x84D JUMP JUMPDEST SWAP3 POP DUP3 DUP3 ADD SWAP1 POP DUP1 DUP3 GT ISZERO PUSH2 0xCC8 JUMPI PUSH2 0xCC7 PUSH2 0xC6E JUMP JUMPDEST JUMPDEST SWAP3 SWAP2 POP POP JUMP JUMPDEST PUSH0 PUSH1 0x40 DUP3 ADD SWAP1 POP PUSH2 0xCE1 PUSH0 DUP4 ADD DUP6 PUSH2 0x856 JUMP JUMPDEST PUSH2 0xCEE PUSH1 0x20 DUP4 ADD DUP5 PUSH2 0x856 JUMP JUMPDEST SWAP4 SWAP3 POP POP POP JUMP JUMPDEST PUSH32 0x4E6F2062616C616E636520746F20776974686472617700000000000000000000 PUSH0 DUP3 ADD MSTORE POP JUMP JUMPDEST PUSH0 PUSH2 0xD29 PUSH1 0x16 DUP4 PUSH2 0xAC1 JUMP JUMPDEST SWAP2 POP PUSH2 0xD34 DUP3 PUSH2 0xCF5 JUMP JUMPDEST PUSH1 0x20 DUP3 ADD SWAP1 POP SWAP2 SWAP1 POP JUMP JUMPDEST PUSH0 PUSH1 0x20 DUP3 ADD SWAP1 POP DUP2 DUP2 SUB PUSH0 DUP4 ADD MSTORE PUSH2 0xD56 DUP2 PUSH2 0xD1D JUMP JUMPDEST SWAP1 POP SWAP2 SWAP1 POP JUMP JUMPDEST PUSH32 0x5469746C65206973207265717569726564000000000000000000000000000000 PUSH0 DUP3 ADD MSTORE POP JUMP JUMPDEST PUSH0 PUSH2 0xD91 PUSH1 0x11 DUP4 PUSH2 0xAC1 JUMP JUMPDEST SWAP2 POP PUSH2 0xD9C DUP3 PUSH2 0xD5D JUMP JUMPDEST PUSH1 0x20 DUP3 ADD SWAP1 POP SWAP2 SWAP1 POP JUMP JUMPDEST PUSH0 PUSH1 0x20 DUP3 ADD SWAP1 POP DUP2 DUP2 SUB PUSH0 DUP4 ADD MSTORE PUSH2 0xDBE DUP2 PUSH2 0xD85 JUMP JUMPDEST SWAP1 POP SWAP2 SWAP1 POP JUMP JUMPDEST PUSH32 0x436F6E74656E7420686173682069732072657175697265640000000000000000 PUSH0 DUP3 ADD MSTORE POP JUMP JUMPDEST PUSH0 PUSH2 0xDF9 PUSH1 0x18 DUP4 PUSH2 0xAC1 JUMP JUMPDEST SWAP2 POP PUSH2 0xE04 DUP3 PUSH2 0xDC5 JUMP JUMPDEST PUSH1 0x20 DUP3 ADD SWAP1 POP SWAP2 SWAP1 POP JUMP JUMPDEST PUSH0 PUSH1 0x20 DUP3 ADD SWAP1 POP DUP2 DUP2 SUB PUSH0 DUP4 ADD MSTORE PUSH2 0xE26 DUP2 PUSH2 0xDED JUMP JUMPDEST SWAP1 POP SWAP2 SWAP1 POP JUMP JUMPDEST PUSH32 0x5072696365206D7573742062652067726561746572207468616E207A65726F00 PUSH0 DUP3 ADD MSTORE POP JUMP JUMPDEST PUSH0 PUSH2 0xE61 PUSH1 0x1F DUP4 PUSH2 0xAC1 JUMP JUMPDEST SWAP2 POP PUSH2 0xE6C DUP3 PUSH2 0xE2D JUMP JUMPDEST PUSH1 0x20 DUP3 ADD SWAP1 POP SWAP2 SWAP1 POP JUMP JUMPDEST PUSH0 PUSH1 0x20 DUP3 ADD SWAP1 POP DUP2 DUP2 SUB PUSH0 DUP4 ADD MSTORE PUSH2 0xE8E DUP2 PUSH2 0xE55 JUMP JUMPDEST SWAP1 POP SWAP2 SWAP1 POP JUMP JUMPDEST PUSH0 PUSH2 0xE9F DUP3 PUSH2 0x84D JUMP JUMPDEST SWAP2 POP PUSH32 0xFFFFFFFFFFFFFFFFFFFFFFFFFFFFFFFFFFFFFFFFFFFFFFFFFFFFFFFFFFFFFFFF DUP3 SUB PUSH2 0xED1 JUMPI PUSH2 0xED0 PUSH2 0xC6E JUMP JUMPDEST JUMPDEST PUSH1 0x1 DUP3 ADD SWAP1 POP SWAP2 SWAP1 POP JUMP JUMPDEST PUSH32 0x4E487B7100000000000000000000000000000000000000000000000000000000 PUSH0 MSTORE PUSH1 0x22 PUSH1 0x4 MSTORE PUSH1 0x24 PUSH0 REVERT JUMPDEST PUSH0 PUSH1 0x2 DUP3 DIV SWAP1 POP PUSH1 0x1 DUP3 AND DUP1 PUSH2 0xF20 JUMPI PUSH1 0x7F DUP3 AND SWAP2 POP JUMPDEST PUSH1 0x20 DUP3 LT DUP2 SUB PUSH2 0xF33 JUMPI PUSH2 0xF32 PUSH2 0xEDC JUMP JUMPDEST JUMPDEST POP SWAP2 SWAP1 POP JUMP JUMPDEST PUSH0 DUP2 SWAP1 POP DUP2 PUSH0 MSTORE PUSH1 0x20 PUSH0 KECCAK256 SWAP1 POP SWAP2 SWAP1 POP JUMP JUMPDEST PUSH0 PUSH1 0x20 PUSH1 0x1F DUP4 ADD DIV SWAP1 POP SWAP2 SWAP1 POP JUMP JUMPDEST PUSH0 DUP3 DUP3 SHL SWAP1 POP SWAP3 SWAP2 POP POP JUMP JUMPDEST PUSH0 PUSH1 0x8 DUP4 MUL PUSH2 0xF95 PUSH32 0xFFFFFFFFFFFFFFFFFFFFFFFFFFFFFFFFFFFFFFFFFFFFFFFFFFFFFFFFFFFFFFFF DUP3 PUSH2 0xF5A JUMP JUMPDEST PUSH2 0xF9F DUP7 DUP4 PUSH2 0xF5A JUMP JUMPDEST SWAP6 POP DUP1 NOT DUP5 AND SWAP4 POP DUP1 DUP7 AND DUP5 OR SWAP3 POP POP POP SWAP4 SWAP3 POP POP POP JUMP JUMPDEST PUSH0 DUP2 SWAP1 POP SWAP2 SWAP1 POP JUMP JUMPDEST PUSH0 PUSH2 0xFDA PUSH2 0xFD5 PUSH2 0xFD0 DUP5 PUSH2 0x84D JUMP JUMPDEST PUSH2 0xFB7 JUMP JUMPDEST PUSH2 0x84D JUMP JUMPDEST SWAP1 POP SWAP2 SWAP1 POP JUMP JUMPDEST PUSH0 DUP2 SWAP1 POP SWAP2 SWAP1 POP JUMP JUMPDEST PUSH2 0xFF3 DUP4 PUSH2 0xFC0 JUMP JUMPDEST PUSH2 0x1007 PUSH2 0xFFF DUP3 PUSH2 0xFE1 JUMP JUMPDEST DUP5 DUP5 SLOAD PUSH2 0xF66 JUMP JUMPDEST DUP3 SSTORE POP POP POP POP JUMP JUMPDEST PUSH0 SWAP1 JUMP JUMPDEST PUSH2 0x101B PUSH2 0x100F JUMP JUMPDEST PUSH2 0x1026 DUP2 DUP5 DUP5 PUSH2 0xFEA JUMP JUMPDEST POP POP POP JUMP JUMPDEST JUMPDEST DUP2 DUP2 LT ISZERO PUSH2 0x1049 JUMPI PUSH2 0x103E PUSH0 DUP3 PUSH2 0x1013 JUMP JUMPDEST PUSH1 0x1 DUP2 ADD SWAP1 POP PUSH2 0x102C JUMP JUMPDEST POP POP JUMP JUMPDEST PUSH1 0x1F DUP3 GT ISZERO PUSH2 0x108E JUMPI PUSH2 0x105F DUP2 PUSH2 0xF39 JUMP JUMPDEST PUSH2 0x1068 DUP5 PUSH2 0xF4B JUMP JUMPDEST DUP2 ADD PUSH1 0x20 DUP6 LT ISZERO PUSH2 0x1077 JUMPI DUP2 SWAP1 POP JUMPDEST PUSH2 0x108B PUSH2 0x1083 DUP6 PUSH2 0xF4B JUMP JUMPDEST DUP4 ADD DUP3 PUSH2 0x102B JUMP JUMPDEST POP POP JUMPDEST POP POP POP JUMP JUMPDEST PUSH0 DUP3 DUP3 SHR SWAP1 POP SWAP3 SWAP2 POP POP JUMP JUMPDEST PUSH0 PUSH2 0x10AE PUSH0 NOT DUP5 PUSH1 0x8 MUL PUSH2 0x1093 JUMP JUMPDEST NOT DUP1 DUP4 AND SWAP2 POP POP SWAP3 SWAP2 POP POP JUMP JUMPDEST PUSH0 PUSH2 0x10C6 DUP4 DUP4 PUSH2 0x109F JUMP JUMPDEST SWAP2 POP DUP3 PUSH1 0x2 MUL DUP3 OR SWAP1 POP SWAP3 SWAP2 POP POP JUMP JUMPDEST PUSH2 0x10DF DUP3 PUSH2 0xAB7 JUMP JUMPDEST PUSH8 0xFFFFFFFFFFFFFFFF DUP2 GT ISZERO PUSH2 0x10F8 JUMPI PUSH2 0x10F7 PUSH2 0x8EB JUMP JUMPDEST JUMPDEST PUSH2 0x1102 DUP3 SLOAD PUSH2 0xF09 JUMP JUMPDEST PUSH2 0x110D DUP3 DUP3 DUP6 PUSH2 0x104D JUMP JUMPDEST PUSH0 PUSH1 0x20 SWAP1 POP PUSH1 0x1F DUP4 GT PUSH1 0x1 DUP2 EQ PUSH2 0x113E JUMPI PUSH0 DUP5 ISZERO PUSH2 0x112C JUMPI DUP3 DUP8 ADD MLOAD SWAP1 POP JUMPDEST PUSH2 0x1136 DUP6 DUP3 PUSH2 0x10BB JUMP JUMPDEST DUP7 SSTORE POP PUSH2 0x119D JUMP JUMPDEST PUSH1 0x1F NOT DUP5 AND PUSH2 0x114C DUP7 PUSH2 0xF39 JUMP JUMPDEST PUSH0 JUMPDEST DUP3 DUP2 LT ISZERO PUSH2 0x1173 JUMPI DUP5 DUP10 ADD MLOAD DUP3 SSTORE PUSH1 0x1 DUP3 ADD SWAP2 POP PUSH1 0x20 DUP6 ADD SWAP5 POP PUSH1 0x20 DUP2 ADD SWAP1 POP PUSH2 0x114E JUMP JUMPDEST DUP7 DUP4 LT ISZERO PUSH2 0x1190 JUMPI DUP5 DUP10 ADD MLOAD PUSH2 0x118C PUSH1 0x1F DUP10 AND DUP3 PUSH2 0x109F JUMP JUMPDEST DUP4 SSTORE POP JUMPDEST PUSH1 0x1 PUSH1 0x2 DUP9 MUL ADD DUP9 SSTORE POP POP POP JUMPDEST POP POP POP POP POP POP JUMP INVALID LOG2 PUSH5 0x6970667358 0x22 SLT KECCAK256 SLT 0xC5 0xEC LOG0 LOG4 0xC3 0xB9 PUSH4 0x3BB675F9 CALLCODE PUSH18 0x4A722380C6BDD18213223178CA182F6498BF PUSH5 0x736F6C6343 STOP ADDMOD BYTE STOP CALLER "
				},
				"gasEstimates": {
					"creation": {
						"codeDepositCost": "914200",
						"executionCost": "946",
						"totalCost": "915146"
					},
					"external": {
						"balances(address)": "2780",
						"contentCounter()": "2513",
						"contents(uint256)": "infinite",
						"publishContent(string,string,uint256)": "infinite",
						"purchaseContent(uint256)": "infinite",
						"withdrawBalance()": "infinite"
					}
				},
				"methodIdentifiers": {
					"balances(address)": "27e235e3",
					"contentCounter()": "e6a9aba3",
					"contents(uint256)": "b5ecf912",
					"publishContent(string,string,uint256)": "782b5e63",
					"purchaseContent(uint256)": "28f2ac28",
					"withdrawBalance()": "5fd8c710"
				}
			},
			"storageLayout": {
				"storage": [
					{
						"astId": 19,
						"contract": "contracts/simple_contract.sol:ContentPlatform",
						"label": "contents",
						"offset": 0,
						"slot": "0",
						"type": "t_mapping(t_uint256,t_struct(Content)14_storage)"
					},
					{
						"astId": 23,
						"contract": "contracts/simple_contract.sol:ContentPlatform",
						"label": "balances",
						"offset": 0,
						"slot": "1",
						"type": "t_mapping(t_address,t_uint256)"
					},
					{
						"astId": 25,
						"contract": "contracts/simple_contract.sol:ContentPlatform",
						"label": "contentCounter",
						"offset": 0,
						"slot": "2",
						"type": "t_uint256"
					}
				],
				"types": {
					"t_address": {
						"encoding": "inplace",
						"label": "address",
						"numberOfBytes": "20"
					},
					"t_address_payable": {
						"encoding": "inplace",
						"label": "address payable",
						"numberOfBytes": "20"
					},
					"t_bool": {
						"encoding": "inplace",
						"label": "bool",
						"numberOfBytes": "1"
					},
					"t_mapping(t_address,t_uint256)": {
						"encoding": "mapping",
						"key": "t_address",
						"label": "mapping(address => uint256)",
						"numberOfBytes": "32",
						"value": "t_uint256"
					},
					"t_mapping(t_uint256,t_struct(Content)14_storage)": {
						"encoding": "mapping",
						"key": "t_uint256",
						"label": "mapping(uint256 => struct ContentPlatform.Content)",
						"numberOfBytes": "32",
						"value": "t_struct(Content)14_storage"
					},
					"t_string_storage": {
						"encoding": "bytes",
						"label": "string",
						"numberOfBytes": "32"
					},
					"t_struct(Content)14_storage": {
						"encoding": "inplace",
						"label": "struct ContentPlatform.Content",
						"members": [
							{
								"astId": 3,
								"contract": "contracts/simple_contract.sol:ContentPlatform",
								"label": "id",
								"offset": 0,
								"slot": "0",
								"type": "t_uint256"
							},
							{
								"astId": 5,
								"contract": "contracts/simple_contract.sol:ContentPlatform",
								"label": "creator",
								"offset": 0,
								"slot": "1",
								"type": "t_address_payable"
							},
							{
								"astId": 7,
								"contract": "contracts/simple_contract.sol:ContentPlatform",
								"label": "title",
								"offset": 0,
								"slot": "2",
								"type": "t_string_storage"
							},
							{
								"astId": 9,
								"contract": "contracts/simple_contract.sol:ContentPlatform",
								"label": "contentHash",
								"offset": 0,
								"slot": "3",
								"type": "t_string_storage"
							},
							{
								"astId": 11,
								"contract": "contracts/simple_contract.sol:ContentPlatform",
								"label": "price",
								"offset": 0,
								"slot": "4",
								"type": "t_uint256"
							},
							{
								"astId": 13,
								"contract": "contracts/simple_contract.sol:ContentPlatform",
								"label": "forSale",
								"offset": 0,
								"slot": "5",
								"type": "t_bool"
							}
						],
						"numberOfBytes": "192"
					},
					"t_uint256": {
						"encoding": "inplace",
						"label": "uint256",
						"numberOfBytes": "32"
					}
				}
			},
			"userdoc": {
				"kind": "user",
				"methods": {},
				"version": 1
			}
		}
	}
}